:020000040800F2
:10400000B01B002011A300082DA3000831A3000855
:1040100035A3000839A300083DA3000800000000F4
:1040200000000000000000000000000041A30008A4
:1040300045A300080000000049A300084DA30008A4
:1040400051A3000855A3000859A300085DA3000868
:1040500061A3000865A3000869A300086DA3000818
:1040600071A3000875A3000879A300087DA30008C8
:1040700081A3000885A3000889A300088DA3000878
:1040800091A3000895A3000899A300089DA3000828
:10409000B5A10008A5A30008A9A30008ADA30008C6
:1040A000B1A30008B5A30008B9A30008BDA3000888
:1040B000B9740008F7740008C9A30008CDA300086C
:1040C000D1A30008D5A30008D9A30008DDA30008E8
:1040D000E1A30008E5A30008E9A30008EDA3000898
:1040E000F1A30008F5A30008F9A30008FDA3000848
:1040F00001A4000805A4000809A400080DA40008F4
:1041000011A4000815A4000819A400081DA40008A3
:1041100021A4000825A4000829A400082DA4000853
:1041200031A4000835A4000839A400083DA4000803
:10413000DFF8EC1C08737047DFF8E40CC07A7047B6
:10414000DFF8DC0C00687047DFF8D41C08607047AB
:10415000DFF8CC1C48717047DFF8C40C4079704719
:1041600038B901EBC101052091FBF0F000F5A0701A
:1041700006E001EB8101A1F5C861092091FBF0F097
:1041800000B2704710B5DFF8B84D00206060A06144
:1041900002F081F808B9082004E0042806DB01F0E9
:1041A000BBFB0620BDE8104002F036BA012002F049
:1041B00033FADFF8900D016A616110BD30B585B04A
:1041C00000250A24DFF8800D02F02DFD4519641E3C
:1041D000F8D10A21B5FBF1F1642041439022B1FBF3
:1041E000F2F27AA100F046F800226946012000F0C0
:1041F000ADFE05B030BD30B583B004460D46062196
:10420000684602F037FD2A4600F033F8DFF8103C2C
:10421000587905F10902694668B9642D07DA092D54
:1042200003DC002D05D5002A01D443200CE04320F7
:1042300013E043200EE0642D09DA092D03DC002D84
:1042400007D5002A03D445208870202005E04520AA
:1042500003E04520487020208870C87020208DF829
:104260000400204600F03EFEDFF8D41C1420086055
:1042700037BDDFA1684602F000BD70B5DFF81C6DE8
:10428000707882B028B1012808BF706803D0022876
:1042900008D106F1080000901023602200F010FB06
:1042A000706026E0032824D10024542517E01C2147
:1042B00006F5D4706143084470600E21E81DC0B259
:1042C00002F031FE7068009010230E220021E8B247
:1042D00002F0FFFD7060ED1F0A2002F042FF30780F
:1042E0008542E4DA641C0E30062C3070DDDB0020E1
:1042F00030707078401CC0B2042808BF0020707075
:1043000073BD2DE9F04182B0857804780FF2C007C3
:10431000A5F130060A2E3CBFA5F13002D2B2C57815
:10432000A5F130060A2E3CBFA5F13003DBB2A4F1A3
:1043300030050A2D3CBFA4F13000C0B2002518247E
:10434000DFF85C6C04FB005C06EB050E17F80CC094
:104350008EF880C204FB025E06EB050C0CF52C7C8B
:1043600017F80EE08CF800E004FB035E6D1C17F8F4
:104370000EE08CF818E0182DE4DB0F46102406F54B
:104380000878380008D102230C220821404600F0AA
:1043900073FC06F53E7000E04046002500901023B7
:1043A0000C2068430C2200F079FF6D1C082DF5DB12
:1043B000641EE6D13FB900F07DFA02F0EBFDBDE8E6
:1043C000F34102F010B9BDE8F38100002566560004
:1043D00000E010080810E00000000000000F1020AE
:1043E00020100F0000000000001010F80000000076
:1043F000000000000020203F2020000000000000FE
:1044000000700808088870000000000000302824B0
:104410002221300000000000003008888848300069
:10442000000000000018202020110E0000000000F5
:104430000000C02010F80000000000000007042465
:10444000243F24000000000000F8088888080800C5
:10445000000000000019212020110E0000000000C3
:1044600000E010888818000000000000000F1120F4
:1044700020110E000000000000380808C8380800AD
:10448000000000000000003F0000000000000000ED
:10449000007088080888700000000000001C2221BD
:1044A00021221C000000000000E010080810E000BD
:1044B000000000000000312222110F000000000067
:1044C000000000000000000000000000003030008C
:1044D000000000000000000010B582B00FF21000D4
:1044E000002400F0D7FE641C062CFADB13BD00008C
:1044F000000000C0F038080404040408081C000090
:104500000000000F1F306040404040203008000095
:10451000000000C0F0180C0404040C18F0C00000E7
:10452000000000071F306040404060301F0700005F
:1045300000000004FC1C38E0C0000004FC04000083
:10454000000000407F40000001071E387F0000008F
:1045500000000004FCFC84848484E4040C1000004B
:10456000000000407F7F40000000030000000000CA
:104570000000000000040404FCFC0404040000002B
:1045800000000000004040407F7F404040000000AD
:10459000000000C0F03808040404040C1C000000F3
:1045A000000000071F3860404042423E3E020200C9
:1045B000F8B50D46DFF868180446487900280CBFA6
:1045C0004327452716460621284602F0D7FF2246F4
:1045D00007A1284602F051FB642CAFBFEF70AF700B
:1045E0002020E87029463046BDE8F44000F0AABD1E
:1045F000256400003EB50C46012201A9FFF7D8FF53
:1046000001A9012000F09EFDDFF8345B2878411CF1
:10461000297010230FF2280101EB401000901022A6
:104620000021292002F055FC2878032804BF00212E
:104630002970382201A92046FFF7BAFF37BD0000D4
:1046400000003060C080000000000000000000009A
:104650000000180C0603010000000000000000002C
:1046600000003060C0803060C080000000000000AA
:104670000000180C0603190C0603010000000000DE
:1046800000003060C0803060C0803060C0800000BA
:104690000000180C0603190C0603190C0603010090
:1046A0000000183060C08000000000000000000022
:1046B00000000C06030100000000000000000000E4
:1046C0000000183060C0983060C08000000000001A
:1046D00000000C0603010C060301000000000000AE
:1046E0000000183060C0983060C0983060C0800012
:1046F00000000C0603010C0603010C060301000078
:1047000010B5012882B008BF0FF2280103D002289B
:1047100008BF0FF2E001009100F0D0F8012400F092
:10472000B9FD641C062CFADB00F0C4F8BDE81340A8
:1047300001F059BFE01864E282010101010182E247
:104740006418E000030C1021274E5850584E2721C2
:10475000100C0300F00C0201010101020F00000027
:1047600000000000030C08101010100806000000E4
:104770000000000000601010909090E00000000029
:1047800000000000000E11111010081F101800008A
:104790000000000000010101FF0000000000000017
:1047A00000000000001010101F101010000000008A
:1047B00000000000000000000000000000000000F9
:1047C00000000000808080808080808080800000E9
:1047D00000000000010779800080790701000000D7
:1047E00000000000000000071C070000000000009F
:1047F00000000000E01804021221418181412212D0
:104800000418E000030C10202844424141422428AF
:10481000100C0300F00C0201010101020F00000066
:1048200000000000030C0810101010080600000023
:104830000000000000601010909090E00000000068
:1048400000000000000E11111010081F10180000C9
:104850000000000000010101FF0000000000000056
:1048600000000000001010101F10101000000000C9
:104870000000000000000000000000000000000038
:104880000000000080808080808080808080000028
:104890000000000000010719E0B00D030100000056
:1048A000000000000010181700011618100000008A
:1048B000000000004FF47A7002F053BC1023102265
:1048C0000021002002F005BB70B582B001F0DFFCD2
:1048D000801E03280FF264050DD8DFE800F0020403
:1048E000070A2C4607E00FF2001404E00FF28414CC
:1048F00001E00FF20C2405F18C000090FFF7DEFFC1
:10490000DFF8DC5B287888B9022614217143214442
:10491000A1F12800009010230A2070430A2200F021
:10492000BDFC761C092EF0DB012004E05021102094
:1049300002F0F9FA0020287073BD000001FF00E1C9
:104940001FE000FF010000011E0100011E01000028
:10495000006010109090E0000000000E111110088F
:104960001F1800001010F040201010300000101030
:104970001F1010000000000010F02010101010E0B8
:104980000000101F10000000101F10000000101386
:10499000F30000000000000010101F1010000000C5
:1049A00010F02010101010E00000101F1000000088
:1049B000101F100000E010101010F0100000007D1B
:1049C0008A8A8A8A9170000000000080E0F8FE0761
:1049D00007FEF8E080000000101C1F1F1F1F1F12A1
:1049E000121F1F1F1F1F1C10001C2221414141824A
:1049F0000700001E081010101008070000C0A0904B
:104A0000909090A0C000000708101010100804003B
:104A100010F02010101010E00000101F1000000017
:104A2000101F100000202020202020202000000047
:104A3000000000000000000001FF21212121F903F6
:104A40000400101F1010101010180400001010F0B7
:104A50004020101030000010101F10100000000047
:104A6000001010F04020101030000010101F101027
:104A70000000000001FF4140404041FF0100101FC5
:104A800010000000101F100000001013F3000000C1
:104A90000000000010101F10100000000000E010C7
:104AA000101010F0100000609D8A8A8A8A917000B0
:104AB00001FF2010101010E00000101F1000000077
:104AC000101F1000002020202020202020000000A7
:104AD00000000000000000000107798000807907D5
:104AE0000100000000071C0700000000000010107B
:104AF000FE1010100000000000000F101008000051
:104B000001FF0100000000000000101F1010101035
:104B10001018040000C0201010101020C000000762
:104B2000081010101008070010F00010F01000F02E
:104B3000100000031C0300031C03000000202020C1
:104B400020202020200000000000000000000000C5
:104B500001077980008079070100000000071C0729
:104B60000000000000C0201010101020C00000073E
:104B7000081010101008070000001010FE10101090
:104B80000000000000000F1010080000F0B5A44D58
:104B9000DFF850490146687A8B1848B968740126D5
:104BA0000820A8742E740020E87128726E7227E025
:104BB000287C18BB6E7C95F812C0C0B201EB060EC3
:104BC00086449EF83370275403EB060E864417186C
:104BD0009EF833E004F807E0401CC7B2BC45ECD2B5
:104BE0000CF10107AF74701EFEB20B2E687405D174
:104BF000701EA87400206874012026E0687C28BB21
:104C00002E7C95F812C0012010E0C0B201F13307EC
:104C100017F800E0371804F807E01F1806EB020E3B
:104C2000864497F8337004F80E70401CC7B267458D
:104C3000EBD3ACF10100A874761C2E74C0B228B975
:104C40000120A8740920687400202874F0BD10B5F4
:104C5000014600200022012393400B405400042A07
:104C6000B9BFC4F10704A340E41FE340521C181865
:104C7000072AC0B2EFDD10BD2DE9F04B5FEA030853
:104C800084B0674F0AD1FB792BB900240123002699
:104C9000FB713C8113E03E6AFC6A10E0B8F1010F41
:104CA0000BD13B7A33B9FB710024012300263B7200
:104CB0007C7204E07E6A3C6B01E0BE6A7C6BDFF8CC
:104CC00024988DF800205143490083460025029224
:104CD000019106E01BF80500FFF7B9FF09F8050090
:104CE0006D1C01988542F5D39DF80020DFF8BC3B90
:104CF0004FF0000C04E0044602980E460CEB400C0A
:104D000001998C4529D20025314620460EE0002825
:104D100014BFC6408E4023F81E606D1C33F81E6021
:104D20004FEA162B09F80EB009F804609542E2D25A
:104D30000CEB02042C190CEB050E19F8046019F8A1
:104D40000EB046EA0B2623F81E60B8F1010FDED143
:104D5000002914BFCE408640DDE7002506E019F8A3
:104D60000500FFF774FF09F805006D1C01988542E6
:104D7000F5D31CB9102E08D100261024641EB8F1FA
:104D8000000F04D13E62FC6208E0761CF7E7B8F140
:104D9000010F07BF7E623C63BE627C63BDE8FF8B90
:104DA000F8B504460D46DFF80C6B1421304601F0CF
:104DB00061FF0FF2700724B900230A22012138464F
:104DC00006E0012C07D101230A22012107F120006E
:104DD000FFF752FF06E0022C04D10A2201213846D7
:104DE000FFF7D4FE009610230A220021562002F07D
:104DF00070F801F001FC04280FF2D00403D104F193
:104E00000C00009005E0002D06BF07F11400009093
:104E10000094102306220021502002F05AF8F1BD20
:104E2000C015002010188CC66363C68C181042632E
:104E300031180C0C1831634200F01E1FF00000FF07
:104E40008080FF0042C68C183030188CC64208188B
:104E50003163C6C6633118088C8CC6C68C8CC6C636
:104E60008C8C31311818313118183131008C8C8C00
:104E70008C8C8C8C8C8C8C8C8C8C8C00003131319B
:104E800031313131313131313131310080C0603037
:104E900098CC66333366CC983060C08088CC66335B
:104EA000190C060303060C193366CC88113366CC43
:104EB000983060C0C0603098CC6633110103060C96
:104EC000193366CCCC6633190C06030100F0FEFFE3
:104ED000F000007F7F7F7F00FF0FE1E00FFFFF808A
:104EE000BFBF80FF38B50C46010001D0092801DBA7
:104EF000002513E0451E11E04FF4A07006E0A0F17C
:104F0000410106291BD23638C0B240012449084469
:104F100000901023280100F0C0F96D1C207870B1BA
:104F200014F8010B2028E7D02D2808BF4FF4C070DB
:104F3000ECD0A0F130010A29E1D23038E4E731BDEC
:104F4000244600202C0000200028014070B50C46AB
:104F5000010082B0154601D0112815DB002620780B
:104F6000D0B1280012D114F8011BA1F12000DFF804
:104F7000381C000601EB105000901023F0000822AE
:104F800000F08CF9761CEAE7461EE8E714F8010BFE
:104F90000FF210013038ECE773BD0000FC07002071
:104FA000F40300200000E010080810E020000F10BB
:104FB0002020100F00001010F8000000200020201A
:104FC0003F20200000007008080808F0200030286A
:104FD00024222130000030080808887020001820A2
:104FE0002121221C0000804030F80000200605240A
:104FF000243F24240000F88888880808200019200D
:105000002020110E0000E0108888900020000F1171
:105010002020201F000018080888681820000000C1
:105020003E010000000070880808887020001C22E3
:105030002121221C0000F008080810E020000112C5
:105040002222110F38B551EA00020FF6603513D154
:1050500000240CE0012C05D1009500F04AF801F085
:1050600038FF0546641C012C3DDC002CF2D1009574
:1050700000F03AF80020F2E7020018D0002932D1FF
:1050800001280AD105F120000090102310225020A1
:1050900001F01FFF05F1400015E0022823D1009523
:1050A00010231022FFF70DFC05F1600017E0080047
:1050B00019D001290CD105F1200000F019F801F0F8
:1050C00008FF05F18000009000F00EF8002008E0D5
:1050D000022908D10095FFF7F1FB05F1A00000F0CF
:1050E00007F801F0F6FE31BD1023102200217047B1
:1050F00000901023102200215020704770B50C46FC
:10510000010082B001D0612801DB002512E0451EBC
:1051100010E014F8010BDFF8941B2038C0B20C2605
:1051200070430E1800960C2306220021E8B201F00D
:10513000D0FEAD1D20780028EBD173BD000000002B
:10514000B2460020F8B505460E4600270FF240048F
:1051500011E030380A282FBFC820C0B214214843BC
:1051600020440090FFB20A2000FB075010230A22BF
:1051700000F094F87F1C16F8010B010007D04328BB
:1051800008BFDC20ECD04528E3D1F020E8E7F1BDF2
:1051900000E0180404040418E000000F3040404010
:1051A00040300F0000000808FC0000000000000074
:1051B00040407F404000000000780404040404885C
:1051C00070000060504844424140700000380404C0
:1051D0008484C830000000384040404040211E0018
:1051E000000080601008FE00000000070404444432
:1051F0007F4444000000FC048484840404000038DC
:105200004141404040211E0000C030888484840415
:105210001800000F3140404040211E00001C0404D3
:105220008444340C04000000007E010000000000F3
:1052300000708804040404887000001C224141416D
:1052400041221C0000F0080404040418E0000030AF
:105250004142424222190700000000000000000005
:105260000000000000000000000000001C1CC03016
:1052700008040404083000000718204040402010B3
:105280001C120C0202FE8282E20200000000407F3B
:105290004000030000901023200110220021C0B222
:1052A00001F017BE014600200A2202E091FBF2F154
:1052B000401C0029FAD1C0B2704700002DE9FE4F12
:1052C000DFF8804CDFF8806CDFF8807C6420A06120
:1052D0004FF4C878C4F80C80012000F0B9F94FF4FD
:1052E000967001F03EFF00F017FB00F01DFE307BD2
:1052F000DFF85C3C0C214143072803EB010E21D869
:10530000DFE800F00404101316191C1E012808BF62
:1053100007F1100502D008B907F11405BA69CEF8F3
:1053200008200FE007F11C050CE007F1200509E05B
:1053300007F1180506E0DFF81C5C03E0751D01E0CD
:1053400007F1240503F1040C5CF8011096F805C080
:10535000DEF80020BEF80890BCF1010F07D100284C
:1053600018BF012803D11A6E596EB3F868900290E5
:10537000019200914FF4167A012000F069F900F0D3
:105380007AFFB0F5807F1CD1029806280FD1707982
:10539000B0B100F0C1F800F0B3F8BBF5167FB8BFAC
:1053A000D34600F0A7F84CDAC7F810A049E0286807
:1053B0000099814245DA00F097F8B8BF08462860A6
:1053C0003FE000F058FF402817D10299062908D184
:1053D000707900285DD100F099F800F0A4F83861E8
:1053E00057E028680199884253DA484428600199B7
:1053F0008142C8BF014629604BE000F03CFFB0F598
:10540000014F27D1029806280FD17079B0B100F072
:1054100083F800F075F8BBF5167FB8BFD34600F0EF
:1054200069F80BDAC7F810A008E0286800998142F3
:1054300004DA00F059F8B8BF08462860642001F08B
:1054400090FE00F071FDC4F80C802820A0610120BE
:10545000307127E000F00FFF48F24001884224D16C
:105460000299062907D1707980B900F04FF800F051
:105470005AF838610AE028680199884206DA4844F7
:10548000286001998142C8BF01462960642001F06B
:1054900068FE00F049FDC4F80C802820A0610220BD
:1054A0003071012000F0D4F807E000F0E4FE48F28B
:1054B0004011884204BF0020E06001F094F8E068E9
:1054C00000287FF459AF00F0DEFE00F02DFD4FF410
:1054D0004870E060C820A0610120F072BDE8F78F3D
:1054E000B3460020EC060020A0EB090028600099DC
:1054F00088427047B0F5167F3861C7F814B070471E
:105500003969834609B20120FEF72ABE0121717173
:10551000796909B2FEF724BE401E707101207969D5
:1055200009B2FEF71DBE78610020396909B2FEF7A5
:1055300017BEF8B500F096FEDFF8084A0546E069A8
:10554000642804D9BDE8F240002000F098BEE0686D
:10555000DFF8F469B0F52F7F04D2F17A012904BF96
:105560000020F07200F087FE000404D5002000F057
:105570008AFE6420E061E06908B900F0CDF900F02E
:105580007AFEB0F5807F4FF4487705D1307B002854
:105590000CBF0920401E08E000F06DFE40280AD133
:1055A000307B0828D4BF401C0020307300F0BCFCC6
:1055B000E76001F0EFFC00F05EFEB0F5014F05D0B2
:1055C00000F059FE48F2400188422FD10020A0612E
:1055D000307B092804D0082809D0FFF76FFE23E0AC
:1055E00002F00CFC00F0A0FC01F0D4FC1CE000F088
:1055F000FAFFFFF75FF901F0CDFC00F068FF012D25
:1056000003D102F050F802F0B1F928000AD0FFF7F8
:1056100077F800F0E8FFFFF74DF9002000F023FED7
:1056200001F0B8FC00F080FCE7600EE000F023FE23
:1056300048F24011884204BFF07A002805D100F0FA
:1056400022FE00F071FC0020E0600020BDE8F24086
:105650002DE9F0418AB0054602A8142101F00AFBA9
:105660000FF698300FF6983100880988ADF80400DD
:105670000024ADF80040ADF80210DFF8CC48207BE4
:10568000092818BF082807D00FF6983151F82010C4
:1056900000220020FFF75AFC207BDFF8B06884A7C7
:1056A00038B9706900F031F970690A2190FBF1F0A6
:1056B0003CE0012807D1306900F027F930690A2160
:1056C00090FBF1F032E0022807D1F06900F006F912
:1056D000F0696421B0FBF1F028E0032807D1306ABB
:1056E00000F0FCF8306A6421B0FBF1F01EE0042801
:1056F00007D1B06900F009F9B0690A2190FBF1F017
:1057000014E0052815D100F09DFD0A2100F0E7F80E
:1057100000F098FD02460A21B2FBF1F10A2000FBDD
:1057200011223946FEF7A6FD00F08CFDFFF7BAFD09
:1057300022E0062808D1607900280CBF5EA15FA195
:1057400002A802F0FBFC16E0072817D196F8240007
:1057500000280CBF5AA15BA102A802F0EFFC00F0E8
:1057600053FF96F82410884205D001F0F3FB96F819
:10577000240000F04DFF0220A07106E0092804D1AA
:105780000FF6802102A801F078FA012D0FF23818E7
:105790004EA7DFF8B06743D1B0693C283DD22079ED
:1057A000012816D100F0A1F8207B052804D100F0D3
:1057B000A7F800F08DF802E0002202A90920FFF707
:1057C000C5FBA07909300022394680B2FFF7BEFB45
:1057D00012E0022817D100F08EF8207B052817D0A0
:1057E000002202A90920FFF7B1FBA07909300022AD
:1057F00001A980B2FFF7AAFBB069002853D1642148
:10580000B16120714FE000F070F8207B0528E7D1EE
:1058100000F076F800F05CF8E5E700F06CF83BE0AB
:10582000207B082822D1B06900283CD100F062FE1C
:105830006179012908D1014600F0DCFC0A2190FBC6
:10584000F1F20FF6D01104E00A2190FBF1F20FF60D
:10585000CC1107A801F011FA002207A90820FFF7D0
:1058600075FBFEF7ABFC1420B0611CE0092804D1E5
:1058700002A90420FFF742FC15E000F03CF8207B71
:10588000052804D100F03CF800F022F802E00022E4
:1058900002A90920FFF75AFBA079093000224146EE
:1058A00080B2FFF753FB0AB0BDE8F081EC43002063
:1058B00025640000EC06002043540000465400001C
:1058C000525400004C540000202020002000000012
:1058D000A07908300122694680B270476421B0FB8C
:1058E000F1F2394602A801F0C8B900220DF1020117
:1058F0000820FFF72BBB002239460820FFF726BB04
:10590000002202A90920FFF721BB0A2190FBF1F236
:10591000394602A801F0B1B9012000F0B4BC70B55D
:1059200082B0044650260D0110E006F1100010214F
:10593000C0B201F0F8FA0094FFF7D6FB304601F050
:10594000C8FA1920103E01F00CFCF6B2E9B28E4202
:10595000EBD273BD2DE9FE4F0546DFF8F005DFF809
:10596000E8659046B0F914200A2392FBF3FB0FFA86
:105970008BFB64209BFBF0F2D2B2642303FB12B0DA
:105980000A2490FBF4F0C0B203FB12BBB37A04FB11
:1059900010BB012B5FFA8BFB03D1F363002333644D
:1059A00006E0022B05D10023F363102333640023A8
:1059B000B3720C4600236100B36300910292019020
:1059C000DFF81098B76B0098874280F29C800299AC
:1059D00009EB411009EB070AC05DFFF738F98AF8B7
:1059E000F802019809EB4011C85DFFF730F98AF819
:1059F000180309EB4B10C05DFFF729F98AF838034B
:105A00007079012814BF9AF8A0019AF8E001FFF715
:105A10001EF98AF858037F1CB763D3E7009BDF1990
:105A2000062363439F4228DA4FF0000E0FE0002860
:105A300014BFC5408D402AF813500EF1010E3AF8FC
:105A400013504FEA152B08F803B008F80C50A64580
:105A5000E4DA07EB040CF44407EB0E0318F80C50DF
:105A600018F803B045EA0B252AF81350002ADED1B6
:105A7000002914BFCD408540DDE70020B0631BE066
:105A800009EB0405641C95F8F802FFF7E0F885F8C7
:105A9000F80295F81803FFF7DAF885F8180395F877
:105AA0003803FFF7D4F885F8380395F85803FFF763
:105AB000CEF885F85803B463B46B00988442DFDBFA
:105AC00001214046B16300901023B06B0007102203
:105AD0000021000E01F0FDF9B16B491C0529B163ED
:105AE000F1DBF26B316C52EA010002D019B9102AD5
:105AF00004D1002005E0491E316401E0521CF2632C
:105B00000120BDE8FE8F2F46C7F1030742466743D9
:105B1000F06B316CDFF8C0A67F0009F53E787FE7B7
:105B2000F8B5DFF828040FF28404B0F914600021FE
:105B30002046FFF7F4FE4FF47A7096FBF0F7FFB2C1
:105B4000DFF89056012105EB4710FFF7E8FE4FF410
:105B50007A7000FB1766642096FBF0F7FFB2022113
:105B600005EB4710FFF7DBFE642000FB17660A22F7
:105B700096FBF2F21206032105EBD240FFF7CFFEAF
:105B8000DFF858164879002814BF4FF4F0704FF42E
:105B9000D07004212844FFF7C2FE04F12000BDE8C4
:105BA000F4400521BBE600005C0B002080804040F3
:105BB0002020101008080404FE000000000001016D
:105BC00002020404080810103F0000000000FE0458
:105BD00004080810102020404080800000003F1082
:105BE000100808040402020101000000008080C0C7
:105BF000C06060303018180C0CFE0000000101037A
:105C00000306060C0C181830307F00000000FE0C54
:105C10000C181830306060C0C080800000007F30F9
:105C20003018180C0C060603030101008080C0C068
:105C3000E0E0F0F0F8F8FCFCFE00000000000101DC
:105C4000030307070F0F1F1F3F0000000000FEFCAB
:105C5000FCF8F8F0F0E0E0C0C080800000003F1FDA
:105C60001F0F0F07070303010100000010B5B74A1B
:105C7000B2F9142064244FF47A7392FBF4F492FB8B
:105C8000F3F3A4B221B9801800F012F804D105E0B2
:105C9000101A00F00DF801D0032010BD89B2A14206
:105CA00001D0022010BD012010BD00004C110020C9
:105CB000642190FBF1F14FF47A7290FBF2F080B224
:105CC0009BB2984270472DE9F84F9F4C9F4DDFF8EB
:105CD0007482FFF721FE60799D49AE69002807BFF5
:105CE000D1F800A0D1F804B0D1F860A0D1F864B028
:105CF000D8F80C10002937D0206840B1002121606D
:105D0000002000F0C0FA01F045F9FFF709FF00F0AC
:105D1000B2FAB0F5A07F4FF4C87927D101F03AF973
:105D200000F002F911E0D8F80C001421B0FBF1F1F9
:105D3000142202FB110008B9FEF740FAD8F80C0053
:105D400008B9C8F80C9000F04EFC00F094FA48F244
:105D500040118842E7D1C8F80C90D8F80C00B0F593
:105D6000AF7F3CBF0021E174BDE8F18F00F083FA02
:105D7000B6B2B0F5807F374626D1D5F814A0D3450A
:105D80004FDA0020E074AAEB07070120A07201217E
:105D90003046FFF76BFF6F615F45B8BF5F46064651
:105DA0006F6100F0B5F80028FBD10220A07200F06E
:105DB000AFF80028FBD100210120FFF743F9686903
:105DC00058452ED1012129E000F055FA40282BD169
:105DD000D5F814B0D34524DA0020E0740021012066
:105DE000A0725F443046FFF741FF06465046BA4571
:105DF0006F61C8BF3846686100F092F80028FBD197
:105E00000220A07200F08CF80028FBD100210220B3
:105E1000FFF718F96869504503D102210020FFF708
:105E200011F900F081F896E700F025FAB0F5014F7E
:105E30002DD16F69BB4563DAE07CAE69FA2803DADD
:105E40000A2E04BF0A30E074E07C86190120A0729B
:105E50000121B0B2B6B2BE1BFFF708FF6E615E450E
:105E6000B8BF5E4682466E6100F04EF80028FBD156
:105E70000220A07200F048F80028FBD10021012088
:105E8000FFF7E0F8686958453AD1012135E000F0A4
:105E9000F2F948F2400188427FF45FAFD5F814B0C0
:105EA000D3452DDAE07CAE69FA2803DA0A2E04BF66
:105EB0000A30E074E07C86190120A0720021B0B2A3
:105EC000FFF7D4FE0746B6B25E445046B2456E6157
:105ED000C8BF3046686100F01FF80028FBD10220DF
:105EE000A07200F019F80028FBD100210220FFF772
:105EF000A9F86869504503D102210020FFF7A2F8F4
:105F0000322001F02EF98CE701221021504621E5C4
:105F10000122102130461DE500221021384619E5E6
:105F200000221021304615E5002000F0A8B9002815
:105F300008BFFFF7C8BEAA49C868002818BFFFF706
:105F4000F8BA704724460020C01500202C0000201D
:105F500004160020E00200202DE9F84300F04CFB7D
:105F6000401E07289E4E9D4CDFF878926BD8DFE8E4
:105F700010F008002E014500D50098009F002E016A
:105F8000C5002068012801D100F02EF9607D40B9DC
:105F900001F017F800214846FEF7B3F901206075BB
:105FA00007E0B16929B9706918B1FEF766F93221C5
:105FB000B161706978B9608B401C608380B232280F
:105FC00005D1208B411E2183C0B200F03DFF208B04
:105FD00008B900F04CFF02F0DAF8012803D000F015
:105FE0004AF900282FD0D9F820007061332020838F
:105FF00000F02AFFBDE8F14300F033BF206828B964
:1060000001212160FFF788FC00F0C4FF00F008FBCD
:106010008046207DB8F1010F07D0012808BF00F0AD
:10602000B9FF0020A083207522E0A18B4B2908BF77
:10603000002804D100F0AEFF0120207500E0B8B1C7
:10604000B06908B13168C2E000F0EEFA0546607947
:10605000D9F81470012805D1294600F0CBF800F0DA
:10606000C7F8074639B22846FEF7C4FA3220B061B5
:106070003168002904BF207D0028E4D100F0D4FA63
:10608000D9F8141005468142B4BF401A081A1228E4
:106090006079B8BF0D46012840F0888029B2002001
:1060A00081E000F0ADFA00B10120BDE8F2433EE727
:1060B0002068012801D100F097F800F0DCF848F2E0
:1060C0004001401A0CD0C03805D0403804BFA0753C
:1060D000FEF702FA0AE00120A07500F072FF05E069
:1060E0000220A07501214846FEF70BF9A07D032888
:1060F0006DD0FFF719FF0320A07568E0206810B984
:10610000012100F072F82168012904BFB06900285C
:106110005DD1FEF7D9FB3221B16158E000F084FA7D
:10612000D9F8101005468142B4BF401A081A122847
:10613000D8BF0D4600F074FA8046207DB8F1010FFB
:1061400007D0012808BF00F025FF0020A08320759C
:106150001FE0A18B322908BF002804D100F01AFFEC
:106160000120207500E0A0B1B06900287FF46AAF7B
:106170006079D9F81070012805D129B200F03AF8F9
:1061800000F036F8074639B228B2FEF733FA32206B
:10619000B0613168002904BF207D002817D16179E2
:1061A000012903D129B2FDF7DBFF05462DB20A20F4
:1061B00095FBF0F109B20120FEF71DF801F0E4FFB4
:1061C00001464046FEF7ECFDA08B401CA083BDE8D5
:1061D000F1830000F4030020EC430020C0150020F0
:1061E000244600202C0000200021216000F0D2BEB7
:1061F000054639B20020FDF7B3BF00003E000000A5
:106200003C00000020466163746F72792052657310
:106210006574000025647D200000000025647B205B
:106220000000000004A200080CA2000814A200084C
:106230001CA2000824A200082CA2000834A2000816
:106240003CA20008DFF8580340687047DFF850139D
:1062500048607047DFF8481308607047DFF8400374
:106260000068704703E0DFF83813C8727047DFF842
:106270003003C07A7047DFF8280300897047DFF8E1
:10628000201308817047DFF8181308737047DFF890
:106290001003807A704770B5054600260A24C1486D
:1062A00000F0C1FC8619641EF9D10A20B6FBF0F19A
:1062B00040F663708142BA4A03D3042090720020F2
:1062C00070BD0A2041439023B1FBF3F100200FF28F
:1062D000203333F81040A14209D2401C042806D2D2
:1062E0000228F6D12C00F4D05468A142F5D3401C0A
:1062F00070BDF8B5AC48AA4D0168C94301F40071FE
:10630000E9820068C04300F040002883FDF714FFD5
:1063100008B100202861EB8AB3F5007F04D100208A
:10632000A882288A401C28822A8B402A04D1002077
:10633000A882688A401C6882698A288A2C7B9B4EC6
:10634000E4B11828C8BF182903DD48F240142C8195
:1063500014E018284FF4014E48F2400704DD19B943
:1063600096F8244034B108E0182907DD30B996F8D2
:10637000244014B1A5F808E000E02F814FF48074A8
:106380004FF4A077C3B9182807DC80B1182904DCC2
:1063900019B12F810020688209E0182807DC30B18C
:1063A00096F8240000281ABF402129812C81A88A50
:1063B000401C0021A8822982D2B9298A688A18291A
:1063C00007DC31B1182804DC68B12F810020288255
:1063D00009E0182807DC30B196F82400002812BF25
:1063E0002C8140212981A88A401C0021A882698231
:1063F000F1BD70B56E4B5C6819780246E508AEB227
:10640000D00021B9586001221A70C00870BD9642B0
:1064100034BF961BB61AB6B23D2EAEBF0246121955
:10642000521B5A60D00870BDF8B500F08DFE61496E
:10643000102008600025192000F097FE41F28836F0
:1064400000270A2400F078FE641E4519874238BFF1
:106450000746B04298BF0646002CF3D1ED1BAD1B9A
:10646000E808BDE8F240C4E7534A117821B9C000FA
:1064700001215060117007E0516840188B1001EB4A
:106480005371A0EBE1005060811000EB5170C0101F
:106490007047F8B50025002641F288370A2400F03D
:1064A0004FFE641E4519864238BF0646B84298BF63
:1064B0000746002CF3D1AD1BED1BE808FFF7D4FF16
:1064C00040F6E4414843000BA0F5FA70F2BD10B568
:1064D000FFF7AAFF0446FFF7DCFFB4F5C87F304999
:1064E00005D2B0F5967F02DA0C60012000E00220B0
:1064F000C87210BDF8B50546FFF796FF0446FFF7D2
:10650000C8FF274B024640F6FF71588B8C4202D1E0
:10651000998B491C07E00021A4F6D966B6F5937F54
:1065200034BF401C002099835883988B598B0746B1
:106530003C2F2DDB61BB032098723C2F03DA0A2924
:10654000BCBF01209872A5F57A719620414340F6B0
:10655000B83691FBF6F05030B5F57A7F08BF0A38AF
:1065600025B119680918A142B8BF241AB2F5C87F2D
:106570001968C8BF4FF4C87240F22630641A4FF44D
:106580007A73424303FB042494FBF0F000B2F2BDA3
:106590000028D2D10A29D2DB02209872CFE700006E
:1065A000DC02002000280140080801402C000020E7
:1065B00084460020140C01408C46002010B504468F
:1065C00045F2555001F052FE032001F052FE0A2020
:1065D00044436403200C01F04FFE01F050FE01F033
:1065E00053FE012010BD80B501F049FE012002BD1F
:1065F0002C0196005A002800DFF87C04807970474F
:10660000DFF87404407A7047DFF86C04807A7047D2
:10661000DFF8641488727047DFF85C148871704783
:10662000DFF8540480887047DFF84C04B0F90000AC
:10663000704728220FF2A041DFF8400401F030BE7D
:10664000DFF83404002101614161416281610F2161
:1066500081830221C18301210184704770B5DFF875
:1066600018144D6A48820022B1F91000B1F91230B5
:10667000C41A8C8224B2B4F5FA7FBCBF012265191A
:10668000984205DA181A00B21428C4BF0025002267
:106690001E2CC88B4D62D4BF002301234243486A9D
:1066A0008D8B424304FB0522B1F916000D8CCC8280
:1066B000261A6E4303FB0622002AD8BF002204DDFF
:1066C00041F270708242C8BF02468A6190B270BDCA
:1066D000DFF8A4238842118204DA0B1A122B04DBA0
:1066E000002105E0431A122B01DC022100E0012108
:1066F0009180B3E770B5DFF88053DFF88443A87961
:1067000001284FF47A760ED003285AD0042800F0DE
:10671000D280052800F02A81082800F0718109281C
:1067200000F05F8170BDFFF7A6FD402811D0B0F5E5
:10673000807F26D1E879012823D000F0C0F9042811
:106740001FDA0320A871002028852060A061606105
:1067500017E0E879012814D00121697200220FF2B4
:1067600064310020FEF7F2FB0020FEF771FFE660C7
:1067700000F010FC0720FDF7DBFC0520A87132209B
:10678000E061E97929B1E06918B90021E971FFF701
:1067900076FD00F094F940B9FDF7D2FC012804BF62
:1067A0000020FDF7D1FC0820A871287A042818BF22
:1067B000012805D0E86C606100F06FF901202872B3
:1067C00070BD287B48B100212973AE4801F0BCFDA3
:1067D0000120FFF758FD00F060F9FFF74CFD48F28B
:1067E0004001401A04D0C03802D040380FD018E021
:1067F00000F0AAFC00F0CEFB002068720520A87112
:1068000000F04BF900206060E660962008E000F0A0
:106810009BFC00F045F90120A8712872E871322034
:10682000E06100F04CF9042807DB00F08DFC00F07B
:1068300037F900F03DF93220E061FDF78DFC18B129
:1068400000F031F9064600E02E6C606848B930B2BD
:10685000FFF750FE00F01CF900B200F07AFC1E2099
:10686000606000F07AFC00B9606001F090FCA0B9B3
:10687000B5F9280018B90121A86C2985A060A06885
:1068800068B90021A980A06100F05EFC00F005F964
:10689000E86C60610420A87101E000202885FFF702
:1068A000F6FC01288CDDFDF74BFC012804BF00201D
:1068B000FDF74AFC58E0FDF74FFC20B1E96B00F012
:1068C000F3F8064600E0EE6B286CE96B884207DAC5
:1068D000FDF742FC18B100F0E6F8064600E02E6C29
:1068E000606848B930B2FFF705FE00F0D1F800B299
:1068F00000F02FFC1E20606000F0E1F804280DDBA2
:1069000000F022FC00F0CCF80120A871E86C606176
:10691000042028720120E8713220E061606958B9D2
:1069200000F012FC00F0BCF80120E871C820E06122
:10693000042028720120A87101F029FC012802D04E
:10694000FFF799FC28B10020A06160612885032031
:10695000A871FFF79CFC012851DDFDF7F1FB012830
:1069600004BF0020FDF7F0FB082047E0E06830BBE3
:106970000120FFF778FC01206061687A012803D1CB
:1069800000F091FE00F0F2FF0020FFF76CFC012008
:106990002873687A58B9FFF776FC00F07EF83A4819
:1069A00001F0D2FC0320A8710020206007E000F075
:1069B000CBFB00F075F800F07BF86420E061FFF796
:1069C0005AFC48F24011884204BF687A002851D12D
:1069D0000021E160FFF753FCBDE870400020FFF7A5
:1069E00052BCE06920B1BDE870400020FFF747BC11
:1069F000FFF741FC00283DD0E6600320A87170BD80
:106A0000FFF745FC801E012803D9801E012816D9F6
:106A100028E0FDF7A1FB18B1E96B00F045F800E0B4
:106A2000E86B00B2FFF766FD2880FFF730FC012815
:106A300018D10320A8710020FDF786FB12E000F0BA
:106A40003EF800280EDD00F03AF804280ADA00F0DB
:106A50007BFB00F025F80120E8710220A06128727C
:106A60000120A87100F079FB20B100F06DFB07490F
:106A70001020086070BD0000000000202C000020E5
:106A80002446002080969800C0C62D00140C0140BA
:106A9000288031B2B5F900001AE60020FFF7EFBBFD
:106AA0000020FFF7F0BB296C09B20120FDF758BBAD
:106AB0000120A871032028720120E871704701208D
:106AC000FFF7E9BB202020202020202020202020AC
:106AD0002020202000000000322E3137000000006E
:106AE0000000000000000000D0070000B80B00000C
:106AF0006400000050460000A08C00000000000070
:106B000080B55749884208D101214FF4007001F047
:106B100030FD00214FF4007016E05249884208D140
:106B200001214FF4806001F024FD00214FF48060CA
:106B30000AE04D4988420BD101214FF4004001F099
:106B400018FD00214FF40040BDE8044001F011BDE4
:106B500001BD4368454A13400A6813430A7943EA72
:106B600002234360424A83681340CA6813438A6819
:106B700013434A7943EA42038360C26A097C4B1E8D
:106B800022F47002DBB242EA0352C262704700296B
:106B9000816812BF41F001014908490081607047D6
:106BA0000029816814BF41F4807121F480718160F3
:106BB0007047816841F00801816070478068C008B3
:106BC000FFE700F0010070470029816814BF41F41D
:106BD000A00121F4A0018160704770B500F026F893
:106BE0001F24072A07DA521E02EB8202436B00F0D1
:106BF00014F8416370BD0C2A07DCD21F02EB82023D
:106C0000036B00F00AF8016370BD0D3A02EB8202DB
:106C1000C36A00F002F8C16270BD944023EA040424
:106C2000914021437047C06C80B2704707240A2905
:106C30000BDBA1F10A0505EB4505C668AC4026EA69
:106C40000404AB402343C360704701EB4105066970
:106C5000AC4026EA0404AB402343036170470000C4
:106C60000024014000280140003C0140FFFEF0FFED
:106C7000FDF7F1FF002201F0ADBC0CB42DE9FC439F
:106C8000024600260023002A0D4600F080800DF108
:106C900024080A2718E0A85D29E0A0F57A7142F2DD
:106CA0002834A1420FD200F07EF81071052300F0C5
:106CB00087F8D1702E21917000F07BF85070084653
:106CC00000F077F81070761CA85D00285DD0591C84
:106CD0002528E0D1761CA85D632806D0642814D04E
:106CE00066283AD0732805D0D5E758F8040BD0545D
:106CF0000B46E8E758F8041B0024085D00281EBF77
:106D0000D054641C5B1CF8D1DDE758F8049B0024C8
:106D1000B9F1000F05D52D208DF800000124C9F12F
:106D200000090A2199FBF1F1012002E091FBF7F142
:106D300078430029FAD100282DD099FBF0F101F118
:106D4000300C0DF804C000FB1199641C90FBF7F0A7
:106D5000F1E7D054641C5B1C20E058F8040B411E82
:106D6000092924BFA0F10A045A2CACD3A0F1640174
:106D7000B1F5617F91D200F016F8D070042300F0D5
:106D80001FF891702E2151709AE7D0541046BDE83B
:106D9000F6035DF80CFB0DF8040000241DF8040058
:106DA0000028D6D18FE790FBF7F107FB11003030B8
:106DB00070470A2190FBF1F107FB1100303070475A
:106DC0000A2091FBF0F007FB101130317047F0B44E
:106DD000034618689D681A18586802EB5004C007EB
:106DE00021D54D441FE0F0BC03F10C00704712F8B0
:106DF000017B05F8017B491EF9D1A0B1B60812F854
:106E0000011B06F00306032E08BF12F8016B01EB0D
:106E100006214942801C294405D011F8016B05F870
:106E2000016B401EF9D1A242DDD012F8016B16F0C1
:106E3000030104BF12F8011BC91C30090F28DAD165
:106E400012F8010B0F30D6E780B50FF2D822136885
:106E500000938DF803003C220421684601F004FBF6
:106E600001BD3C2206210FF2C02001F0FDBA3C22F8
:106E700006210FF2BC2001F0F7BA10B5A0B00C4605
:106E800040218DF80010401C80B2012104E014F86C
:106E9000013B0DF80130491C8142F8DB01463C22E0
:106EA000684601F0E1FA204620B010BD10B5934AC3
:106EB000934B92F82440012C18BF203058713C228B
:106EC0005878091859700821BDE81040184601F09B
:106ED000CBBA2DE9F0410446880801EB5070CE088A
:106EE000C0085B18B1EBC001DBB218BF761C990873
:106EF00003EB5175ED08B3EBC500069F18BF6D1C81
:106F00009046EDB209E031462046FFF7CFFF394603
:106F10004046FFF7B2FF0746761CF6B2AE42F2DB00
:106F20003846BDE8F08130B5A1B004460D4601A851
:106F3000FFF7A0FE00F041F82A4600212046FFF7A7
:106F4000C8FF00F03AF82A4608212046FFF7C1FFA3
:106F500021B030BD38B56B4C4FF4807565600220B0
:106F600000F0FFF82560022000F0FBF86349664856
:106F700091F82420012A03D1C821C172A12102E085
:106F8000C021C172A021C1743C22BDE838402E212D
:106F900001F06ABA00B5A1B0802101A8FFF76AFE2E
:106FA00000F00BF88022002100F0B3F800F005F8A3
:106FB000802200F0ADF821B000BD01A800900823A8
:106FC00070472DE9F041A2B0802102A8FFF752FEE0
:106FD000002201A90FF2401000F077FB0124050008
:106FE0007BD02878422804BF69784D2940F08380FF
:106FF00005F136000278FF2A04BF4178FF2903D14A
:107000008078FF2808BF002401274FF00F0E0DF1F4
:107010000906002300220C2000FB0E2028444FF01C
:10702000800C90F83E80082120460CEA080408B144
:1070300024B900E014B1F45C3C43F4545B1C491ED9
:10704000DBB24FEA5C0CF0D1521C0C2A0446E2DBA6
:107050007F063F0EAEF1010EBEF1080FD9DA02A88D
:1070600000900823602200F054F8FFF7BCFA7F215B
:107070000DF1090000F082FA01274FF0000E002305
:1070800000226FF00B0000FB0E2028444FF0800C14
:1070900090F89280082120460CEA080408B124B92F
:1070A00000E014B1F45C3C43F4545B1C491EDBB2B9
:1070B0004FEA5C0CF0D1521C0C2A0446E1DB7F063F
:1070C0003F0E0EF1010EBEF1080FD8DB02A80090B2
:1070D0000823602200F01CF807E00C480090102301
:1070E000602200210020FFF7F4FE4FF47A7000F0D8
:1070F00038F8FFF778FA22B0BDE8F0812C000020C4
:10710000EC03002010080140BC030020FC0200201A
:1071100008210020DDE600004C4F474F494E20205B
:10712000424D500080818000808D801480AF00002F
:10713000808D801080AE0000DFF804040088704766
:10714000DFF8FC0340887047DFF8F8130020C860C0
:107150007047DFF8F013C8607047DFF8E803C068D5
:107160007047DFF8E023142102E0DFF8D8230A217A
:107170004843906090680028FCD17047DFF8C8133E
:107180004FF400620A6100284FF480520A610868D7
:107190000AD120F4404040F4405008600A6822F4CC
:1071A000402242F4403209E020F4804040F4304074
:1071B00008600A6822F4802242F430220A60704794
:1071C00080B501F08DF9102001F026FA012001F0C0
:1071D0001BFADE49DE484A6802434A60086840F00C
:1071E00080700860012001F094F9012001F094F909
:1071F000392001F0C7F90028FAD0022001F08FF9F8
:1072000001F094F90828FBD10121052001F096F93D
:10721000012140F20C6001F09AF90121032001F0F4
:107220009FF9BDE80240012001F085B980B5014613
:107230004FF0006001F0A3FA4FF4A06001F06EFA85
:1072400014208DF8000002218DF8011000208DF827
:10725000020001218DF80310684601F064FA4FF432
:10726000E06001F05BFA01218DF802108DF8031047
:1072700000208DF801001C218DF80010684601F0F7
:1072800052FA1D208DF80000684601F04CFA01BD4D
:1072900038B503208DF8020010214FF480708DF86E
:1072A0000310ADF800006946AA4CAB4D204601F032
:1072B0007BFA0121A94801F0C9FA102000F023F857
:1072C000C02020611421ADF800008DF80310204685
:1072D000694601F069FA8020002100F00CF80120D5
:1072E00000F011F8022000F00EF84FF41070482161
:1072F00000F001F831BDADF800008DF8031028460C
:10730000694601F051BAADF800006946204601F027
:107310004BBA2DE9F041924D90B0284601F0C4FAE5
:107320009048874905900691002002210790089116
:10733000099080214FF480700A910B904FF4806186
:1073400020200C910D904FF4005100200E910F90D1
:1073500005A9284601F0F6FA0121284601F00DFBA7
:10736000814D824E2846FFF7CBFB00F05DF84FF4CD
:1073700060270297022103908DF810102846694675
:10738000FFF7E7FB3046FFF7BBFB00F04DF8029735
:1073900003908DF8101030466946FFF7DAFB07239B
:1073A000022207212846FFF718FC072301220821A3
:1073B0002846FFF712FC0523012209213046FFF77A
:1073C0000CFC01212846FFF7EBFB01212846FFF7C3
:1073D000DEFB01213046FFF7DAFB28464FF4204858
:1073E000FFF7E7FB44462846FFF7E8FB40B120469D
:1073F000441E0028F7D114E02046441E20B910E0B6
:107400003046FFF7D6FB44463046FFF7D7FB00284F
:10741000F2D101212846FFF7D7FB01213046FFF7C3
:10742000D3FB10B0BDE8F0810020012100908DF861
:1074300004108DF80510704710B584B02F20ADF8FA
:10744000000042F20F710020ADF80410ADF8060004
:10745000ADF8020069464FF0804001F0B7FA00F045
:1074600046F801F009FB012200F041F801F0FCFAB6
:1074700000F03DF801F0EEFA2F203121ADF80000C8
:10748000ADF804104FF480700021ADF80600ADF89F
:1074900002106946364C204601F098FA0121204638
:1074A00001F0EAFA01220121204601F0DDFA012172
:1074B000204601F0CFFA1FBD10B500F018F801F01A
:1074C000E7FA00212B4C04EB8102506810B153689D
:1074D0005B1E5360491C0829F5DB2078411C0228FB
:1074E000217003D1FEF705FF0020207010BD01219F
:1074F0004FF08040704780B501211D4801F0C8FA67
:107500001049486810B14A68521E4A60886810B134
:107510008A68521E8A60C8680A78174B48B1C868E2
:10752000401EC860100019BF10205860102018605D
:10753000D243C86810B910225A6000220A7001BDF7
:107540009C460020444600200408014000100240F0
:107550000A846800000C014000080140000130006E
:10756000080002404C240140002401400028014052
:107570000004004020460020100C0140002201F0D1
:107580009FBA000082B00020019008E00099491CD9
:10759000009100986428F9DB0199491C0191019838
:1075A000B0F57A7FB8BF0021F2DB02B0704710B5AA
:1075B000024600200A2412F8011B41B1A1F1300358
:1075C0000A2B3EBF04FB0010303880B2F3D310BD4D
:1075D00070B50C46FFF7EBFF0546FEF743FE64234C
:1075E0006B430A21082C01FB05F2DFF88C682CD8CC
:1075F000DFE804F005080B0E11141B21250020BB49
:10760000326170BD08BB726170BDF0B9F36170BDCD
:10761000D8B9336270BDC0B9B26170BDA8B94D436D
:107620002846BDE87040FEF711BE70B9E8B2BDE86B
:107630007040FCF78DBD40B986F8245070BD20B96C
:107640002846BDE87040FEF705BE70BD70B50C461B
:10765000FFF7ADFF0546681F072CA5F164060CD89F
:10766000DFE804F004041115181A1D1DFCF774FD61
:1076700028B940F22D10864213D2012070BDD43DAE
:10768000B5F5097F09E03C3DB5F56B7F05E0B6F542
:10769000617F02E0152800E00F28EED301E0022D03
:1076A000EBDB002070BD10B54FF41852DFF8CC179B
:1076B000DFF8CC0700F004FEDFF8C8070021002245
:1076C0000023002480E81E0010BD2DE9F041DFF802
:1076D000B08784B005460E4608F5806710240B225B
:1076E0003946684600F0DCFD69460B200A78401EEA
:1076F000A2F161031A2B3CBF203A0A70491C0028F2
:10770000F4D10B222946684601F00AFA30B120373D
:10771000641EE4D1002004B0BDE8F081B88B308055
:10772000788B08EB402101F50070F4E72DE9F14F6B
:10773000ADF5107D8A4640F23B1140A8FFF79AFA5A
:10774000DFF8448790994FF400724046002500F01E
:10775000A7FD0027A946232140A801FB09F1002429
:107760004618404601F010FA854280F0DA8018F899
:1077700005000D2818BF0A2800F0D380232C3CBF39
:107780003055641C6D1CECE7202918BF3D297AD1C7
:107790006D1C00F08CF9854275D21BF8050001467E
:1077A00030380A28F0D2302903D1062C18BF072C14
:1077B00069D15D44A1B22846FFF748FF002862D096
:1077C000E1B22846FFF704FF5CB9DFF8AC060169B7
:1077D0000A2291FBF2F20FF2D46140A8FFF74DFAB2
:1077E00061E0012C08D1DFF8900641690A2291FB83
:1077F000F2F20FF2C46142E0022C08D1DFF8780601
:10780000C1696422B1FBF2F20FF2B86137E0032CD8
:1078100008D1DFF86406016A6422B1FBF2F20FF2CC
:10782000B0612CE0042C08D1DFF84C0681690A22F3
:1078300091FBF2F20FF2A46121E0052C07D1FEF7D3
:1078400001FD0A21B0FBF1F20FF29C6117E0062C5A
:1078500005D1FCF781FC02460FF298610FE0072C7E
:1078600006D1DFF814060FF2946190F8242006E0A8
:10787000082C18D1FEF7F2FC02460FF28861584638
:10788000FFF7FBF90FE000F012F901465846FFF749
:1078900075FE7569284601F077F902462946584673
:1078A00000F0FEFC0127641C082C45DDFE21684623
:1078B000FFF7E0F90024232140A861430144684612
:1078C00001F07DF909EB8400641C816B684601F0CE
:1078D00076F9082CEFDD684601F056F9DFF8A015BF
:1078E00001EB4A1202F21C421070000A507001F5BE
:1078F0008060909A101A00F50070411200EB9150D0
:107900008012012209F80020684601F03DF9024684
:107910009098694600F0C4FC38460DF5117DBDE82D
:10792000F08FAD1C09F101093755B9F1080F7FF748
:1079300012AF0024DFF84C9508EB840009EB8406B5
:10794000D0F80052284601F01FF9232240A96243D3
:1079500001EB020B02462946584601F0E1F80028E7
:1079600091D1284601F010F9054612E72DE9F04FB4
:10797000C1B00020ADF800006A460FF294540DF13A
:1079800002012046FFF7A1FEDFF8F48458B1BDF8EC
:107990000010FFF7CBFE18B9FEF764FC002877D083
:1079A00000F045F974E00FF274556A460DF10201DA
:1079B0002846FFF78AFE010008F21647DFF8CC944C
:1079C0004FF418561ED0FE2201A800F069FC314683
:1079D0004046FFF74FF995E80E0008F5846080E80F
:1079E0000E00FE2201A908F5006000F069FC0321E9
:1079F00000207875C7F8209008F23A400170FE2107
:107A0000817003E031464046FFF734F994E80E00F8
:107A100008F58060002580E80E000622DFF870146B
:107A2000404600F04DFC0622DFF8641408F50070B3
:107A300000F046FC002608F5C064DFF8480400EBBF
:107A4000860A761CDAF814B000F031F8024659467E
:107A5000601900F025FC00F02AF8DAF838A0451982
:107A6000504601F091F802465146601900F018FCAA
:107A7000504601F089F84519092EDED3002088F818
:107A80000B04C7F8009002203871BD7100F0FAF8BD
:107A900042F60C0040440021C17601774176016036
:107AA00081600161C160002041B0BDE8F08F58469F
:107AB00001F06AB82DE9F0430F46B7F5805F85B055
:107AC00005464FF40074DFF8B89309D122464946C1
:107AD00001F026F8002872D02246294648460DE0DB
:107AE000B7F5205F0DD109F500762246314601F049
:107AF00017F8002863D022462946304600F0D0FB14
:107B00005DE0B7F5804FDFF87C6330D109F5806721
:107B10002246394601F004F8002850D02246294672
:107B2000384600F0BDFB0120707010240FF2E037E2
:107B30000C222946684600F0B3FB0B223946684602
:107B400000F0EEFF48B12035641EF1D1307C0128F1
:107B50000AD100213174318031E0A87E7082012089
:107B60003074287F0028F4D00121317027E0A7F578
:107B7000004842F20100804521D209EB0700A0F540
:107B8000F44922464946284600F0CAFF20B1224661
:107B90002946484600F084FB708A4FEA5821891C28
:107BA000814206D1811E89B24846FFF7BFFD40B928
:107BB00005E0A7F5FC47701CBF0A0121C15500F084
:107BC00036F805B0BDE8F08338B505460C46FFF73A
:107BD000D9FC4FF4007144B90FF260340A462146D3
:107BE0002846BDE8384000F05BBBA548B4F5805F8F
:107BF00008BF0446F2D0B4F5205F08BF00F500745A
:107C0000ECD0B4F5804F08BF00F58064E6D0A4F551
:107C1000004042F20102904204D204F1006404F5F3
:107C20008C44DBE72846BDE83440FFF7A7BCF8B535
:107C300000F0FCFC00249349085D18B9641C102C6A
:107C4000FAD317E08D4D00200855002705EB84205E
:107C500000F0D7FF8A4800EB842636F8021B07EBBA
:107C60008420281800F0BCFF042807D1BF1CB7F5FA
:107C7000806FF2D300F0E4FC0020F2BD00F0E0FCE5
:107C80000420F2BD70B500F0D1FC7D4C7B4E002588
:107C900006EB852000F0B5FF6D1C092DF8DB0025F3
:107CA00034F8021B701900F09BFF042807D1AD1CAB
:107CB000B5F5185FF4DB00F0C3FC002070BD0420B4
:107CC00070BD70B50A466E4B724D42F618015C18D5
:107CD000217A29B94002286052026A60012020728C
:107CE000217A01292FD1206803F5185668B929682F
:107CF0003046FFF769FF40229821304600F096FF9A
:107D00004FF4E070206040200AE0A86840229821EB
:107D1000304400F08BFF216840392160A868403072
:107D2000A8604021012001F02BF83021012000F053
:107D3000ACFF28686968403028604039696056485F
:107D4000816840398160686840B900212160A9607C
:107D500028600320514908700021217270BDF8B5D8
:107D60000246474E4E4D42F61C0034180B46206822
:107D70002179403029B952025B022A606B600121EF
:107D80002171217901292AD10021464B07E013F8FE
:107D900001C002F807C0491C2268521C226006F587
:107DA000185227688742F2D36B683F4E29683088A3
:107DB0004118181A68602960C00506D100202060AB
:107DC000A1F500711046FFF775FE334930888A68C7
:107DD000121A8A604FF44051022000F065FF686873
:107DE00000281EBF2D490A78042A06D100202060F1
:107DF000012101F030F900202071F1BD10B584B0EF
:107E0000694600200022002381E80D00FCF7A0F95C
:107E100048F6A040184C206244F250616420E161B1
:107E2000A061FEF713FA002084F8240040F6B83071
:107E300060614FF4FA6020610120FEF714FAFFF749
:107E400032FCFFF793FD0020FEF70DFA0FF2D80188
:107E50006846FEF712FF4FF4FA70FFF782F9FEF75B
:107E6000C2FB69460020FDF749F94FF47A70FFF72D
:107E700078F9FEF7B8FB1FBD2C00002000C00008F9
:107E8000B01B002054000020B8000020188DDD40F9
:107E9000B00000206446002054460020EC4500203D
:107EA0007C4600208C450020EE450020537462542F
:107EB000656D703D25640000576B54656D703D2500
:107EC00064000000536C7054696D653D25640000CA
:107ED00049646C54696D653D2564000054656D709E
:107EE0005374703D256400004F6666566F6C743D98
:107EF0002564000054656D703D25640048616E6422
:107F00003D2564005A65726F505F41643D256400F1
:107F1000434F4E4649472020545854004C4F474F3A
:107F2000494E2020424D5000496E697469616C20B1
:107F3000737563636573732100000000EB3C904D23
:107F400053444F53352E3000020108000200025006
:107F500000F80C000100010000000000000000001B
:107F6000000029A298E46C4E4F204E414D45202040
:107F70002020464154313220202033C98ED1BCF01C
:107F80007B8ED9B800208EC0FCBD007C384E247D8D
:107F9000248BC199E83C01721C83EB3A66A11C7CDE
:107FA00026663B07268A57FC750680CA0288560259
:107FB00080C31073EB33C98A461098F766160346E0
:107FC0001C13561E03460E13D18B7611608946FC96
:107FD0008956FEB82000F7E68B5E0B03C348F7F323
:107FE0000146FC114EFE61BF0000E8E60072392632
:107FF000382D741760B10BBEA17DF3A66174324EAB
:10800000740983C7203BFB72E6EBDCA0FB7DB47DEB
:108010008BF0AC9840740C487413B40EBB0700CDC1
:1080200010EBEFA0FD7DEBE6A0FC7DEBE1CD16CDE6
:1080300019268B551A52B001BB0000E83B0072E8CC
:108040005B8A5624BE0B7C8BFCC746F03D7DC74641
:10805000F4297D8CD9894EF2894EF6C606967DCBE1
:10806000EA030000200FB6C8668B46F86603461C7C
:10807000668BD066C1EA10EB5E0FB6C84A4A8A46E4
:108080000D32E4F7E20346FC1356FEEB4A5250066B
:10809000536A016A10918B4618969233D2F7F69183
:1080A000F7F64287CAF7761A8AF28AE8C0CC020A43
:1080B000CCB80102807E020E7504B4428BF48A565D
:1080C00024CD136161720B40750142035E0B49754B
:1080D00006F8C341BB000060666A00EBB04E544C2A
:1080E00044522020202020200D0A52656D6F7665B5
:1080F000206469736B73206F72206F7468657220DF
:108100006D656469612EFF0D0A4469736B206572A9
:10811000726F72FF0D0A507265737320616E792061
:108120006B657920746F20726573746172740D0AC7
:1081300000000000000000ACCBD855AA5FEA000C9C
:1081400080EA01039B0715D1830706D011F8013B94
:1081500000F8013BB3B18307F8D10A68B2F10133EB
:1081600023EA020313F0803F02BF40F8042B51F8CA
:10817000042FF3E711F8013B00F8013B13B111F8AC
:10818000013BF9E76046704737480078704736484A
:108190004078704780B58DF800008DF801101D22E1
:1081A0000221684600F060F9012002BD80B5034657
:1081B0008DF800301D220121684600F069F99DF814
:1081C000000002BD80B500212A20FFF7E3FF022155
:1081D0000E20FFF7DFFF18212A20FFF7DBFF002129
:1081E0002B20FFF7D7FFBDE8044001212A20D1E76B
:1081F0002DE9F0431C4D002028800026012783B084
:10820000FFF7D4FF0107E8462BD50324F8B2FFF7A8
:10821000CDFF81467F1CF8B2FFF7C8FF40EA092076
:108220007F1C00050016641E28F8020BEED100200A
:1082300005EB40033DF91020B3F904409A80141B6C
:1082400021B2002948BF6442A619401C0328EFDB75
:1082500036B2112EA4BF01202870212EA4BF012008
:108260006870BDE8F7830000704600200949086087
:108270007047094908607047084908607047054918
:108280004AF6AA200860704702494CF6CC400860C4
:1082900070470000003000400430004008300040CB
:1082A00062B38B0708D0521E11F8013B00F8013B66
:1082B00000F024808B07F6D1830740F0208000BFB8
:1082C000103A07D330B4B1E83810103AA0E83810AB
:1082D000F9D230BC530724BFB1E80810A0E8081059
:1082E00044BF51F8043B40F8043BD20724BF31F8A7
:1082F000022B20F8022B44BF0B7803707047121F2B
:1083000017D35B0009D151F8043B20F8023B1B0C4A
:10831000121F20F8023BF6D20BE051F8043B00F8A4
:10832000013B1B0A20F8023B1B0C121F00F8013B0B
:10833000F3D238BF121D521E24BF11F8013B00F8C2
:10834000013BF8D87047000081B001E00098401E62
:10835000009000980028F9D101B0704710B500F0E6
:108360001EF82060402000F04DF88021616000F090
:108370004AF84020606010BD10B500F010F8606051
:1083800000F041F84021216000F03DF8802000F02D
:1083900039F8402060600220BDE81040D4E7304C3E
:1083A000402060608020704770B5064608242D4D3F
:1083B0004020E860641E300647BF8020A86080200F
:1083C000E86000F020F84021A96000F01CF8760079
:1083D000002CEDD14020E860FF248020A86000F050
:1083E00012F82868010603D5641EF8D1002070BD7C
:1083F0004020A86000F007F84020E86000F003F893
:10840000012070BD206002209EE7F8B50546154E9C
:10841000802008240027B0604020F060641EFFF731
:10842000F2FF4021B160FFF7EEFF30687F000106E8
:1084300048BF47F00107002CEED14020F060002D2E
:1084400007BF8020B0608020F060FFF7DCFF402095
:10845000B060FFF7D8FF4020F060F8B2F2BD000036
:10846000100C0140080C014070B504460D4616463C
:10847000FFF774FF7606300E02E014F8010B6D1E54
:10848000FFF792FFA8B20028F7D1BDE8704073E76C
:10849000F8B504460D4616461F46FFF75FFF760007
:1084A000F0B2FFF781FF3846FFF77EFFFFF756FF78
:1084B00046F00106F0B2FFF777FF28000DD004E088
:1084C0000120FFF7A2FF04F8010B6D1EA8B20028DF
:1084D000F6D1FFF79AFF04F8010BBDE8F1404BE736
:1084E0003149086840F0010008604A682F4802409E
:1084F0004A600B682E4803400B60086820F4802017
:1085000008604FF41F004A6822F4FE024A60886047
:108510007047284908607047284908607047264915
:108520000A68920840EA82000860704722480068A2
:1085300000F00C007047224908607047214A00296A
:10854000116814BF084321EA0000106070471E4AFA
:108550000029116814BF084321EA00001060704729
:108560001A4A0029116814BF084321EA000010606C
:108570007047174A0029116814BF084321EA000018
:108580001060704701464009074A012808BF10687B
:1085900003D002280CBF106A506A01F01F01C840C6
:1085A00000F0010070470000001002400000FFF8DA
:1085B000FFFFF6FE0000424204100240600042420B
:1085C000D800424214100240181002401C10024011
:1085D0000C10024000B500BF1300964694461039B7
:1085E00028BFA0E80C50FAD85FEA417C28BF0CC035
:1085F00048BF40F8042BC90728BF20F8022B48BF0A
:1086000000F8012B00BD0000DFF8D8100A6802F066
:108610003802104308607047DFF8C8100A6822F07B
:1086200010020A600B68184308607047FFE7DFF824
:10863000B800DFF8B8100160DFF8B41001607047CF
:10864000FFE7DFF8B000016841F08001016070478A
:1086500038B5044600F017F8042813D1DFF8945019
:10866000286840F0020028606C604FF430202968D0
:1086700041F04001296000F041F82A6841F6FD719F
:108680000A402A6032BD4FF4302037E070B504460E
:108690000D4600F010F8042806D100F006F8326804
:1086A00041F6FE710A40326070BD124E306840F0F3
:1086B0000100306025804FF400501FE00E49086033
:1086C00070470D490A680420D30701D5012070477F
:1086D0000A68530701D5022070470968CA0648BFD7
:1086E0000320704700200240042002402301674518
:1086F000AB89EFCD102002400C20024010B5FFE7FF
:108700000446FFF7DEFF03E02CB1FFF7DAFF641E3B
:108710000128F9D004B9052010BD00001B491C4AEE
:1087200008431060704770B5014601220B78C87885
:108730001C46D8B1164B1B684D7803F4E063C3F5B3
:10874000E0631B0AC3F10400854088780F26DE40F1
:10875000304005430F4B2D011D5509780E4B01F09C
:108760001F008240490943F8212070BD03F01F0318
:108770000A4802FA03F3640940F8243070BD084A3D
:108780001140084307490860704700000000FA05DF
:108790000CED00E000E400E000E100E080E100E03A
:1087A00080FFFF1F08ED00E02DE9F041CA780E8838
:1087B0000446002002F00F05D20644BF8A78154314
:1087C0004FF001084FF00F0CF2B2DAB1226808FA4C
:1087D00000FE0EEA0607774510D183000CFA03F776
:1087E000BA4305FA03F31A43CB78282B08BFC4F821
:1087F00014E003D0482B08BFC4F810E0401C082840
:10880000E5D32260B6F5807F1EDB6268002000F1B0
:10881000080308FA03FE0EEA0607774510D1830025
:108820000CFA03F7BA4305FA03F31A43CB78282B63
:1088300008BFC4F814E0CB78482B08BFC4F810E098
:10884000401C0828E3D36260BDE8F081F0B5154B09
:1088500000284CBF9C691C68470D86B23A019640BF
:1088600000F44012B2F5401FC0F3034506D11D6865
:1088700025F0706524F070641D600BE0C20206D51F
:108880002246032707FA05F422EA040400E0B44371
:1088900044F0706401B13443002801D59C61F0BDFF
:1088A0001C60F0BD0400014002684FF6FE710A40F2
:1088B00002600021016041608160C160354A364933
:1088C00090421DD0354A904221D0354B984225D058
:1088D000344A904229D0344B98422ED0334A9042A9
:1088E00003D10A6842F4700222E0314B984203D16E
:1088F000086840F0706023E02E4A2F49904203D16F
:10890000086840F00F001BE02C4A904203D10A682F
:1089100042F0F0020CE02A4B984203D1086840F480
:1089200070600DE0274A904204D10A6842F4704218
:108930000A607047244B984203D1086840F47020C5
:108940000860704703688A686FF30E1313430A6A5E
:1089500013430A6913434A6913438A691343CA6973
:1089600013434A6A13438A6A13430360CA68426026
:108970000A6882604968C160704721B1026842F0AC
:1089800001020260704703684FF6FE710B400360FE
:108990007047000008000240040002401C00024032
:1089A0003000024044000240580002406C00024087
:1089B0008000024008040240040402401C040240FB
:1089C00030040240440402405804024030B5DFF84D
:1089D000C840DFF8DC300588A04218BF98420ED0AE
:1089E000B0F1804F1CBFDFF8B420904207D0DFF811
:1089F000B02090421CBFDFF8AC20904204D14FF66B
:108A00008F7215404A881543DFF89C2090421CBFA6
:108A1000DFF89820904204D04FF6FF421540CA88F4
:108A200015430580A0428A88828518BF98420A882B
:108A300002850AD0DFF87C2090421FBFDFF8782043
:108A40009042DFF87820904201D1097A0186012115
:108A5000818230BD21B1028842F00102028070475C
:108A600003884FF6FE7110E0002A828914BF11437B
:108A700022EA01018181704721B1028842F080021F
:108A80000280704703884FF67F710B400380704768
:108A900000BFC94301827047002C01400004004020
:108AA00000080040000C004000100040001400408E
:108AB00000340140004001400044014000480140B2
:108AC000401810F0030308D0C91A1FD3DB0748BFB2
:108AD00000F8012D28BF20F8022D130030B41446F1
:108AE0001546103928BF20E93C00FAD8490728BFAD
:108AF00020E90C0048BF40F8042D890028BF20F869
:108B0000022D48BF00F8012D30BC7047C91818BFAE
:108B100000F8012DCB0728BF00F8012D7047000099
:108B20000300002013F0030F09D0521E22BF13F8D8
:108B3000010B11F801CBB0EB0C00F3D0704711F032
:108B4000030F14D1121F22BF53F8040B51F804CBAA
:108B50006045F7D0121D0AD200BA9CFA8CFCB0EB2B
:108B60000C0038BF6FF0000088BF01207047521E14
:108B700022BF13F8010B11F801CBB0EB0C00F6D0BB
:108B8000521C08BF1046704700F10103810704D052
:108B900010F8011B89B18107FAD10268B2F10131E5
:108BA000914311F0803F04BF50F8042FF6E710F80E
:108BB000011B11B110F8011BFBE7C01A70470346F7
:108BC00000E05B1C1A78002AFBD111F801CB83F876
:108BD00000C013F801CBBCF1000FF6D170470000C4
:108BE00038B504460D461048FFF788FD05281CBF20
:108BF0003420FFF763FD29462046BDE83440FFF7E7
:108C000045BD10B50446A0050CD10748FFF776FD19
:108C100005281CBF3420FFF751FD2046BDE8104059
:108C2000FFF716BD10BD0000A086010010B50E4B69
:108C3000521C03EB4103521007E00178447841EAEB
:108C40000421801C23F8041B521EF6D110BD064BD4
:108C5000521C03EB4103521004E053F8041B20F8AC
:108C6000021B521EF9D17047006000404FF6F871A8
:108C7000DFF8A02108401060704710B500F029F817
:108C800048F68F121440214367E010B500F021F838
:108C900048F6BF721440CA0648BF84F01004890623
:108CA00048BF84F020040DE010B500F012F84BF638
:108CB0008F721440CA0448BF84F48054890448BFAA
:108CC00084F4005444F4004444F0800443F8204009
:108CD00010BDDFF8443153F820407047DFF83821E9
:108CE00052F820304BF68F710B4083F4405343F41D
:108CF000004309E0DFF8202152F8203048F68F6168
:108D00000B4043F40043FFE743F0800342F8203078
:108D10007047DFF8042152F820104B040AD552F8AE
:108D2000203048F68F710B4043F4404343F08003FA
:108D300042F820307047DFF8E02052F820104B0650
:108D40000AD552F8203048F68F710B4043F40043A7
:108D500043F0C00342F82030704743F8201010BDA4
:108D60003BE02C4A13689BB203EBC0032B483AE06C
:108D70003FE028490A6892B202EBC00227483EE071
:108D8000244A13689BB203EBC003254800EB430061
:108D9000016070471F4A13689BB203EBC003214870
:108DA0003F2900EB430009DB4A0911F01F0F08BF00
:108DB000521E1204920942F4004205E04A08C90713
:108DC00048BF521C120492090260704711490A6898
:108DD00092B202EBC002134816E00E4A13689BB22F
:108DE00003EBC003104800EB430049084900016051
:108DF000704708490A6892B202EBC0020A4800EBC9
:108E00004200006880B2704700EB42000068C0F387
:108E100009007047505C0040005C00400860004062
:108E2000046000400C600040006000400146000A01
:108E3000C9B240EA01207047954890F82010891E79
:108E4000032900D9704780B5DFE801F0060F020260
:108E5000002180F820100CE0C17B28290ED1816A06
:108E6000406ABDE8044000F07BB90121002000F019
:108E7000F2F8BDE804404FF440512BE101BD38B594
:108E8000834CE57B0220FFF7A1FF60840246D821D6
:108E90008048FFF7DCFE94F8200010B1012803D0D1
:108EA00007E0BDE8314010E02A2D03D1A16A606AD5
:108EB000B4E0022000F0F8F82421052000F04BF97E
:108EC000BDE8344000210220C5E038B5704C658C07
:108ED0002A0003D06F492046FFF7F2F96E48616817
:108EE00041601F2DA168816006D0022000F0DCF8EF
:108EF000002020601A2189E0E27B282A18BF2A2A54
:108F00000FD1A17C607CE37C090441EA0061207DF3
:108F100041EA032101436162A07DE17D41EA002134
:108F2000A16220685D4988426CD15D49607B0B6815
:108F3000834203D3A07B08B1112804DB022000F098
:108F4000B3F8242162E0606AA16A002A49D0032AAA
:108F50002BD0082A18BF0A2A50D0122A29D0152A45
:108F60004CD01A2A2DD01B2A27D01D2A46D01E2AC3
:108F700023D0232A2DD0252A2FD0282A35D02A2ABB
:108F800037D02F2A36D0552A38D05A2A1DD0882AD1
:108F900018BF8A2A32D08F2A18BF9E2A2ED0A82A1C
:108FA0001CBFAA2AAF2A29D02CE0BDE8314000F02E
:108FB000CAB8BDE8314000F091B8BDE8314000F0DA
:108FC000CEB8BDE8314000F0B6B8BDE8314000F0A1
:108FD000B6B8BDE8314000F08FB8BDE8314000F0D0
:108FE0009AB8BDE8314000F020B9BDE8344000F047
:108FF000B7B813E0BDE8314000F001B9BDE8314039
:1090000000F018B9022000F04FF82021052000F0F0
:10901000A2F8BDE83440002101201CE0BDE8344046
:1090200000F0C6B810B50C4622469821FFF7FEFDA9
:1090300021460120FFF7A4FE30210120FFF725FE85
:109040001349032081F82000134881680C1B8460B9
:109050000021017310BD10B502460C460E4811499F
:109060000160027398210D22FFF7E0FD0D21012020
:10907000FFF786FE0648052180F8201034B1042150
:1090800080F820103021BDE8104020E010BD000025
:10909000CC4500208C4500205446002055534243C7
:1090A000A44600205553425380B518B1022805D07C
:1090B00008D301BDBDE80440102108E010210120C3
:1090C000FFF7E3FDBDE804404FF4805102E00120CA
:1090D000FFF7DBBD0220FFF7E7BD000072497348D0
:1090E0000A7CD30748BF052104D4C97C0830252950
:1090F000A8BF2421FFF796BF6D480021818002217F
:1091000081710021C1714172022181720021C172FD
:109110000C21FFF787BF6748002101800F21817074
:10912000FF21C17000218180022181710021C17164
:109130000821FFF777BF04215F48FFF773BF0821BD
:109140005E48FFF76FBF5848C17C5D481329A8BF30
:109150001221FFF767BF5A4A90701173704765E09C
:1091600070B5584E044630780D46B0B92A462146AF
:10917000282000F073F8B8B14B49087B010603D5ED
:109180000221317029460AE00220FFF78DFF00F02E
:109190000CF8BDE8704001215DE0022804D12046B2
:1091A000BDE87040FEF78DBD70BD24210520D2E7DB
:1091B00010B5444C0A462178C9B901462A2000F06E
:1091C0004DF8D8B13849087B010608D40121217037
:1091D0004FF44051BDE810400220FFF765BD00206C
:1091E000FFF762FFFFF7E1FFBDE8104032E0012921
:1091F00004D1BDE810401146FEF7B1BD10BD80B5E9
:109200002949886828B9097C480702D4012100202F
:1092100006E00220FFF748FFFFF7C7FF002101200B
:10922000FFE7BDE80440FFF716BF00BF01210020A3
:10923000FFF711BF80B51C49886820B1097B08067B
:109240004CBF00200220FFF72FFF2021FFF7AEFFC9
:10925000BDE8044000210120FFF7FDBE80B5511894
:1092600041F20103994209D32A2804BF0220FFF7E3
:109270001BFF0020FFF718FF21210BE00A498B6834
:10928000B3EB422F0ED02A280CBF02200020FFF79C
:109290000BFF2421FFF78AFF00210120FFF7DBFEEF
:1092A000002002BD012002BDCC4500205017002047
:1092B0009C170020944600207C1700208017002077
:1092C00088170020EC45002010B5DFF8944700B95E
:1092D0002DE000F0FBF80A689047226802F10A00CE
:1092E00010BD80B5DFF878070268DFF87807D3781B
:1092F000417899420DD39178002904BF90880028C5
:1093000007D1DFF86417937208684268904700201D
:1093100002BD022002BD10B5DFF8444700B906E0E7
:1093200000F0D4F88A68904720680C3010BD21689E
:1093300001200882002010BD38B5DFF82447DFF88F
:109340002C2720681368C17840799D69A847226856
:10935000917A99B1002804BF117900290ED1907833
:1093600060B9DFF804170A68D0688047206841793F
:10937000C1722068C1780173002032BD022032BD65
:1093800010B5DFF8DC16096810B9022008823AE04F
:10939000DFF8DC46002020800022087810F07F0FE4
:1093A00013D1487A810648BF42F00202227040067B
:1093B000217854BF01F0FE0141F00101217000F05D
:1093C00085F80A699047204610BD00F07F03012B05
:1093D000F9D000F07F00022815D14879DFF89436E3
:1093E00000F00F01000653F8210042F0010205D5FC
:1093F00000F030001028E2D12270E0E700F4405085
:10940000B0F5805FF7E7002010BDF8B5DFF8500633
:109410000268107810F07F0004D1507A00F0DF006D
:1094200050724FE0022801BF5188002910790028AE
:109430004AD15179DFF83C56DFF8283621F0800414
:10944000080655F824001E784CBF00F0300000F4E8
:109450004050B44238D200281CBF907A002833D044
:10946000090655F824000BD500F03000102825D14E
:109470002046FFF760FC30212046FFF706FC1DE088
:1094800000F44050B0F5805F18D148F280064BF6EA
:109490008F7744B900F0C2FA2868074087F4405734
:1094A0003E432E600AE02046FFF733FC55F82400C7
:1094B000074087F440573E4345F8246000F006F823
:1094C0004A6990470020F2BD0220F2BDDFF89805FE
:1094D0000168704770B5DFF88805DFF898350468D3
:1094E000DFF88065657925F0800253F822102806A0
:1094F00030784CBF01F0300101F44051824206D275
:10950000608820B900291CBFA07A002801D1022060
:1095100070BD280653F8224048F2800105D548F670
:10952000BF70044084F0100404E04BF68F700440D8
:1095300084F48054214343F82210DFF82C15086886
:1095400082699047002070BD80B5DFF8140500687F
:10955000417A41F020014172FFF7B8FFCA69904794
:10956000002002BDDFF8F8241268538A20B98888E9
:10957000C31A1382002070470868184470472DE909
:10958000F843DFF8DC84DFF8F054D8F8001001F17C
:1095900010063088002804BF097A042918D1DFF8A2
:1095A000DC040278012A0FD1DFF8D434DFF8D46468
:1095B0001A6892B206EB420600213160042730217E
:1095C0002980002101702AE010200727288026E04A
:1095D000B488844205D30427A04288BF20460446AD
:1095E00000E00227B1682046884781460020FFF747
:1095F000BFFB014622464846FFF718FB21460020E4
:10960000FFF7BEFB3088DFF88014001B30807088C5
:1096100024187480302028804FF440500880D8F8F7
:1096200000100F72BDE8F18338B5DFF834442268CA
:109630001078557810F07F0F39D1092D02D1FFF73E
:1096400050FE4AE0052D1CD1D1787F2953DC90785B
:10965000002801BF91880029907A00284BD1DFF8BB
:109660002024DFF820541368DFF80C249BB205EBAC
:1096700043050021296006203021118022681072E4
:1096800031BD032D08D1D178012904BF908800286D
:1096900025D1FFF759FF20E0012D04BFD178012922
:1096A0001DD19088D8B9517A88060FD417E000F000
:1096B0007F02012A04D10B2D11D1FFF73DFE0CE0F2
:1096C00000F07F0002280AD1012D02D1FFF79DFE94
:1096D00003E0032D03D1FFF7FDFE0028BFD0DFF824
:1096E0008C130A68536928469847032808BF092045
:1096F000C4D00028B3D00820C0E770B5DFF86053AD
:10970000DFF868432A6882B05078062813D11078B1
:1097100010F07F0F2AD19078012802D12068C1690A
:1097200068E0022802D12068016A63E003281DD1A5
:109730002068416A5EE000283DD15088002804BFBF
:10974000D188022912D1107980B9117811F07F0FD8
:1097500004BF908800282CD001F07F03012B0ED18C
:1097600000F08EF810B92968887A10BB2968226841
:109770004878116988470246032A4DD043E001F03A
:109780007F010229F2D15079BA4B00F00F0200F0AC
:109790007001000653F82200B24B1E784CBF00F057
:1097A000300000F44050B242E0D20029DED100285F
:1097B000DCD0B6491EE0082805D1107810F07F0FE4
:1097C000D4D1B34916E00A2802BF107800F07F0018
:1097D0000128CBD1907A0028C8D05188002901BF38
:1097E00010790028D1880129C0D100F049F800285B
:1097F000BCD1A8490800B9D0286800224282816102
:109800000020884700222B68198A08464FF6FF750A
:10981000A84205D1092008E029680920087273BD13
:10982000022A18BF002902D10820187273BD1A78C5
:1098300015061ED5DA8800922468009D8D4202D25A
:10984000009818820FE091420DD294F82C208B4D95
:10985000914238BF002005D390FBF2F102FB1100CA
:1098600008B90120287094F82C009882BDE8734054
:1098700085E6032018724FF440508349088073BD79
:109880005079226893690021184738B57C48824A8C
:109890000168734D89B202EB41028049108801EBE7
:1098A00040042868017A092912D014F8012B0270AB
:1098B000296814F8010B48706088FFF7B7FA296827
:1098C0004880E088FFF7B2FA296888806089C880FC
:1098D0000120296808722A68D08810B9FFF7A4FE11
:1098E00001E0FFF70AFFBDE8314081E010B55C4CB4
:1098F0002068017A022918BF042904D1FFF73FFE2E
:109900002068007A14E0062911D14178052904BFA6
:10991000027812F07F0F06D1C07800F085F8FFF7CB
:10992000D5FD0A6A9047514801688A689047082027
:1099300021680872BDE810405AE0F8B5484D286823
:10994000017A022918BF04294DD0032918BF05291F
:1099500043D100F11006B1683488002918BF002CEB
:1099600014D0B088844288BF044620468847074602
:109970003088001B30807088201870800020FFF72E
:10998000F8F9014622463846FFF761F930883A4C2B
:1099900048B13D4A4FF44051118000200021FFF7AB
:1099A000EFF9302020803088B2882968904228BFA3
:1099B000032001D210B1052008720BE006200872C6
:1099C00000202F492F4B0A6892B203EB4203186024
:1099D000302020802868007A06E0072903D1234838
:1099E0000168CA689047082029680872BDE8F140FC
:1099F00080B500F013F81A4A1068017A082906D1D8
:109A0000214B4FF480521A8010211B4B1980007A91
:109A1000092801D1012002BD002002BD204890F894
:109A20002C100020FFF7B6B970B50E49114B09781C
:109A3000002248F68F760BE0D4B253F8245035401C
:109A4000254345F4004545F0800543F82450521C59
:109A50008A42F1D3134940F08000086070BD0000D5
:109A600014460020A81700201C460020184600209D
:109A7000AC460020005C0040A2460020B446002016
:109A8000505C004004600040A04600208193000824
:109A9000C992000817930008086000400060004069
:109AA000C41600204C5C00407047000080B500F0F8
:109AB000FFF887490A680020907200F029F985486C
:109AC000854A002141604FF404411180016000206B
:109AD0008249086001BD10B58149824A824C00204C
