:020000040800F2
:10400000F80A002071B700080DB700080FB70008C4
:1040100011B7000813B7000815B70008000000002A
:1040200000000000000000000000000017B70008BA
:1040300019B70008000000001BB700081DB70008F2
:10404000B1B70008B5B70008B9B70008BDB7000898
:10405000C1B70008C5B70008C9B70008CDB7000848
:10406000D1B70008D5B70008D9B70008DDB70008F8
:10407000E1B70008E5B70008E9B70008EDB70008A8
:10408000F1B70008F5B70008F9B70008FDB7000858
:104090001FB7000805B8000809B800080DB80008E7
:1040A00011B8000815B8000819B800081DB80008B4
:1040B00023B7000827B7000829B800082DB8000862
:1040C00031B8000835B8000839B800083DB8000814
:1040D00041B8000845B8000849B800084DB80008C4
:1040E00051B8000855B8000859B800085DB8000874
:1040F00061B8000865B8000869B800086DB8000824
:1041000071B8000875B8000879B800087DB80008D3
:1041100081B8000885B8000889B800088DB8000883
:1041200091B8000895B8000899B800089DB8000833
:10413000DFF8980E406B7047DFF8901E48637047B9
:10414000DFF8881E48707047DFF8800E40787047AF
:1041500038B901EBC100052190FBF1F000F5A0702A
:1041600006E001EB8100A0F5C860092190FBF1F0A9
:1041700000B2704710B5DFF8584E00206060A061B3
:1041800003F06CF808B9082004E0042806DB02F00C
:10419000CBFA0620BDE8104003F03CBA012003F042
:1041A00039FADFF8300E006A606110BD30B585B0B5
:1041B00000240A25DFF8200E03F02DFD04196D1EE2
:1041C000F8D10A20B4FBF0F0642148439021B0FB01
:1041D000F1F24AA100F04AF800226946012001F0FC
:1041E00092F805B030BD30B583B004460D460621C7
:1041F000684603F03BFD2A4600F037F8DFF8CC2D87
:10420000527805F109016AB9642D07DA0A2D03DA3B
:10421000002D05D5002901D443210CE0432116E0EF
:1042200043210FE0642D0ADA0A2D03DA002D08D5A8
:10423000002904D445218DF80210202107E04521F2
:1042400005E045218DF8011020218DF80210202075
:104250008DF803108DF804006946204601F00EF831
:10426000DFF86C1D1420086037BD25A1684603F0F7
:1042700024BD70B5DFF8644D0FF28801607802004C
:1042800082B006D0012802D16068009002E00228C6
:1042900006D100911023602200F0C8FC606025E088
:1042A000032823D10025542616E01C210FF2F41018
:1042B0006943084460600E21F01D03F002FE60684F
:1042C000009010230E220021F0B203F0CFFD6060B9
:1042D000F61F0A2003F096FF20788642E5DA6D1C6F
:1042E0000E30062D2070DEDB002020706078401C30
:1042F000C0B2042808BF0020607073BD2566560058
:104300002564000000000000000000000000000024
:10431000000000000000000000000000000000009D
:10432000000000000000000000000000000000008D
:104330000000008898BFBF9888000000008080803F
:1043400080808000000000000000000000000000ED
:10435000000000000000000000000000000000005D
:1043600000000000002060606060606090909090AD
:10437000909090909090909090909090909090903D
:104380009090909090606060606060606070F8886D
:1043900084828283838383838382828282838383F2
:1043A00083838382828282828684848484848484D8
:1043B00084848484848484848484828282828282C9
:1043C0008282FE00000000000000000000000000EB
:1043D00000000000000000000000000000000000DD
:1043E00000000000000000000000000000000000CD
:1043F00000000090B0FEFEB09000000000808080C1
:10440000808080000000000000000000000000002C
:10441000000000000000000000000000000000009C
:1044200000000000002060606060606090909090EC
:10443000909090909090909090909090909090907C
:104440009090909090606060606060606070F888AC
:104450008482828383838383838282828283838331
:104460008383838282828282868484848484848417
:104470008484848484848484848482828282828208
:104480008282FE0000F0F00000F0F0F00000FCF886
:10449000F0E0C080000F0F00000F0F0F00003F1F63
:1044A0000F070301000000000000000000000000F2
:1044B00000000000000000000000000000000000FC
:1044C0000001FFFF01010101010181C67E3800806A
:1044D000FFFF818101010101000000000020202078
:1044E000E0E0008040402060C04000808080FFFF0E
:1044F000818080800000000000000080404020207B
:1045000020404080000000003F7F448484848484F5
:10451000844727000000008040402020204040C009
:104520000000000020C3828684848C8C8878300050
:104530000000008040402020204040C000000000DB
:1045400020C3828684848C8C887830000000000030
:104550000000008080C0602010180C86E0E0E0ECD5
:10456000FCF2F3F1F0F8ECE4E4E2E3010000000017
:10457000000000000080C0402030180CC0C0C0D82F
:10458000F8E4E6E3E1F1D8C8C8C4C603FCFCFC00CB
:10459000000000C0382625010101010101010102CE
:1045A0007F7F7F06090909090909394848484830C9
:1045B00010080804FCFC00000000C038262501019A
:1045C00001010101010102027F7F060909090909B0
:1045D0000939484848483010080804040000000021
:1045E000000000008080C06030180C8600E0E0EC25
:1045F000F4F6F6FBF5E8E8E4E2E2E1000000000092
:1046000000000000000080C06030180C00C0C0D85E
:10461000E8ECECF6EBD1D1C8C4C4C201FEFEFE80CA
:104620004040605854020202020202843F3F3F00B1
:10463000010101010107050506020100FEFE80409F
:104640004060585402020202020284843F3F00018B
:10465000010101010705050602010000F8B5857892
:104660000FF2A807A5F130060A2E3CBFA5F13003D2
:10467000DBB2C5780078A5F130060A2E3CBFA5F163
:104680003002D2B2A0F130050C460A2D3CBFA0F199
:104690003001C9B20025DFF8446C182000FB015C32
:1046A00006EB050E17F80CC08EF860C000FB035E29
:1046B00006EB050C17F80EE00CF890EF00FB025E1D
:1046C0006D1C17F80EE08CF818E0182DE6DB1027AB
:1046D000200008D102230C220821304600F095FC6E
:1046E00006F1D80000E03046002500F003FE6D1C06
:1046F000082DFADB7F1EEBD13CB900F089FA03F0FC
:1047000035FCBDE8F14002F078BFF1BD00E01008D3
:104710000810E00000000000000F102020100F0023
:1047200000000000001010F8000000000000000071
:104730000020203F2020000000000000007008083A
:10474000088870000000000000302824222130007A
:104750000000000000300888884830000000000099
:104760000018202020110E00000000000000C020D2
:1047700010F800000000000000070424243F24007B
:104780000000000000F80888880808000000000009
:104790000019212020110E000000000000E0108808
:1047A0008818000000000000000F112020110E00EA
:1047B0000000000000380808C838080000000000A9
:1047C0000000003F000000000000000000708808AA
:1047D0000888700000000000001C222121221C001B
:1047E0000000000000E010080810E00000000000D9
:1047F0000000312222110F00000000000000000024
:104800000000000000000000003030000000000048
:104810000000000010B582B00FF21000002400F07C
:10482000FBF9641C062CFADB13BD0000000000C07D
:10483000F038080404040408081C00000000000FFD
:104840001F3060404040402030080000000000C0A1
:10485000F0180C0404040C18F0C00000000000075D
:104860001F306040404060301F070000000000041F
:10487000FC1C38E0C0000004FC0400000000004004
:104880007F40000001071E387F0000000000000488
:10489000FCFC84848484E4040C10000000000040CC
:1048A0007F7F4000000003000000000000000000C7
:1048B00000040404FCFC04040400000000000000E8
:1048C000004040407F7F404040000000000000C0AA
:1048D000F03808040404040C1C0000000000000769
:1048E0001F3860404042423E3E0202002DE9F04146
:1048F00084B004468846062101A803F0B7F926A52E
:104900002246294601F0F6FEDFF8C066707801AF56
:1049100028B9642CA8BF432008DA432004E0642CA3
:10492000A8BF452002DA4520B8702020F87001A900
:10493000012001F017FB7079411C717110230FF2F7
:104940005C0101EB4010009010220021292003F0AF
:104950008DFA7079032804BF00207071062101A828
:1049600003F084F94246294601F0C4FE707828B964
:10497000642CA8BF432008DA432004E0642CA8BFBD
:10498000452002DA4520B8702020F87001A93820AF
:1049900001F0E8FABDE8FF81256400000000306006
:1049A000C080000000000000000000000000180CA3
:1049B000060301000000000000000000000030605D
:1049C000C0803060C0800000000000000000180CB3
:1049D0000603190C0603010000000000000030600F
:1049E000C0803060C0803060C08000000000180CC3
:1049F0000603190C0603190C060301000000183009
:104A000060C08000000000000000000000000C06F4
:104A1000030100000000000000000000000018304A
:104A200060C0983060C080000000000000000C06EC
:104A300003010C0603010000000000000000183014
:104A400060C0983060C0983060C0800000000C06E4
:104A500003010C0603010C060301000010B5012838
:104A600082B008BF0FF2280103D0022808BF0FF25E
:104A7000E001009100F0D8F8012400F0CDF8641CAA
:104A8000062CFADB00F0C4F8BDE8134002F0B5BD17
:104A9000E01864E282010101010182E26418E00091
:104AA000030C1021274E5850584E2721100C03009C
:104AB000F00C0201010101020F00000000000000E3
:104AC000030C081010101008060000000000000081
:104AD00000601010909090E00000000000000000C6
:104AE000000E11111010081F101800000000000027
:104AF00000010101FF0000000000000000000000B4
:104B0000001010101F101010000000000000000026
:104B10000000000000000000000000000000000095
:104B20008080808080808080808000000000000085
:104B30000107798000807907010000000000000073
:104B4000000000071C07000000000000000000003B
:104B5000E018040212214181814122120418E00070
:104B6000030C10202844424141422428100C030029
:104B7000F00C0201010101020F0000000000000022
:104B8000030C0810101010080600000000000000C0
:104B900000601010909090E0000000000000000005
:104BA000000E11111010081F101800000000000066
:104BB00000010101FF0000000000000000000000F3
:104BC000001010101F101010000000000000000066
:104BD00000000000000000000000000000000000D5
:104BE00080808080808080808080000000000000C5
:104BF00000010719E0B00D030100000000000000F3
:104C00000010181700011618100000000000000026
:104C10004FF47A7003F0F6BA0090102320011022AE
:104C20000021C0B203F022B910231022002100207D
:104C300003F01CB970B582B002F00CFB801E032893
:104C40000FF260050DD8DFE800F00204070A2C46D9
:104C500007E00FF2FC0404E00FF2801401E00FF211
:104C6000082405F18C000090FFF7DEFFDFF8705696
:104C7000287878B902261420704320442838009000
:104C800010230A20704300F035F9761C092EF2DB60
:104C9000012004E05021102003F013F900202870B7
:104CA00073BD000001FF00E11FE000FF01000001F3
:104CB0001E0100011E010000006010109090E00035
:104CC0000000000E111110081F1800001010F04015
:104CD00020101030000010101F1010000000000005
:104CE00010F02010101010E00000101F1000000045
:104CF000101F100000001013F3000000000000005F
:104D000010101F101000000010F02010101010E004
:104D10000000101F10000000101F100000E0101015
:104D20001010F0100000007D8A8A8A8A91700000BD
:104D300000000080E0F8FE0707FEF8E080000000B9
:104D4000101C1F1F1F1F1F12121F1F1F1F1F1C10B1
:104D5000001C2221414141820700001E0810101052
:104D60001008070000C0A090909090A0C00000071D
:104D7000081010101008040010F02010101010E09F
:104D80000000101F10000000101F10000020202045
:104D90002020202020000000000000000000000073
:104DA00001FF21212121F9030400101F1010101010
:104DB00010180400001010F04020101030000010F7
:104DC000101F101000000000001010F04020101004
:104DD00030000010101F10100000000001FF4140C3
:104DE000404041FF0100101F10000000101F100084
:104DF00000001013F30000000000000010101F104E
:104E0000100000000000E010101010F01000006012
:104E10009D8A8A8A8A91700001FF2010101010E08C
:104E20000000101F10000000101F100000202020A4
:104E300020202020200000000000000000000000D2
:104E400001077980008079070100000000071C0736
:104E50000000000000001010FE1010100000000004
:104E600000000F101008000001FF0100000000000A
:104E70000000101F101010101018040000C02010A7
:104E800010101020C00000070810101010080700B4
:104E900010F00010F01000F0100000031C030003DD
:104EA0001C030000002020202020202020000000E3
:104EB00000000000000000000107798000807907F1
:104EC0000100000000071C070000000000C02010C7
:104ED00010101020C0000007081010101008070064
:104EE00000001010FE1010100000000000000F1055
:104EF000100800000A220021C0B202F0B7BFF0B5CE
:104F0000DFF8E013DFF8D4438D7883185DB901250D
:104F1000CD7000250D7108254D7100250D704D7067
:104F200001258D702AE0CD7835BB0E7991F805C04A
:104F3000EDB200EB060EAE4467199EF833E087F839
:104F4000D8E0571903EB060EAE44E7199EF833E09C
:104F500087F8D8E06D1CEFB2BC45E9D20CF1010531
:104F60004D71761EEDB20B2D0E7105D10A204871E0
:104F700000200871012027E00D7935BBCE7891F82B
:104F800005C0012511E0EDB2471997F833E0771914
:104F9000E71987F8D8E006EB020E5F19AE44A64485
:104FA00097F833708EF8D8706D1CEFB26745EAD36E
:104FB000ACF101004871721CCA70C0B228B901205E
:104FC0004871092008710020C870F0BD2C03002032
:104FD0006C3500202800002000280140F835002012
:104FE00010B5002100220123934003405400042AFD
:104FF000B9BFC4F10704A340E41FE340521C591891
:10500000082AC9B2EFDB084610BD2DE9F44F5FEA6C
:10501000030882B08246B34D0AD1287828B9002609
:105020000120002728706E700CE0AE686F6910E0F8
:10503000B8F1010F0BD1687830B928700026012033
:1050400000276870AE7004E0EE68AF6901E02E6979
:10505000EF699DF80800DFF884924843400000247F
:10506000009008E01AF80400FFF7BAFF09EB04010A
:10507000641C81F8D80000988442F3D39DF808108E
:10508000994A002303E09DF8080003EB40030098D1
:1050900083422ED200240AE022F810A0641C32F8C9
:1050A00010A04FEA1A208CF8D8008EF8D8A08C42B5
:1050B000E9D25818201809EB000E181909EB000C5A
:1050C0009EF8D8B09CF8D8A04BEA0A2A22F810A083
:1050D000B8F1010F06D1002E14BF2AFA06FA0AFA17
:1050E00007FAD9E7002F0CBF0AFA06FA2AFA07FADC
:1050F000D2E7002408E009EB040A641C9AF8D800FF
:10510000FFF76EFF8AF8D80000988442F3D31FB9E6
:10511000102E08D1002610277F1E5FEA080004D158
:10512000AE606F6108E0761CF7E7B8F1010F07BFCA
:10513000EE60AF612E61EF61BDE8F78FF8B5044610
:105140000D466A4E1421304602F090FD0FF26C07B6
:1051500024B900230A220121384606E0012C07D198
:1051600001230A22012107F12000FFF74EFF06E08C
:10517000022C04D10A2201213846FFF7C0FE009616
:1051800010230A220021562002F070FE02F03EFA9F
:1051900004280FF2D00403D104F10C00009005E0C4
:1051A000002D06BF07F11400009000941023062282
:1051B0000021502002F05AFEF1BD000010188CC6EC
:1051C0006363C68C1810426331180C0C18316342AB
:1051D00000F01E1FF00000FF8080FF0042C68C1808
:1051E0003030188CC64208183163C6C663311808BF
:1051F0008C8CC6C68C8CC6C68C8C3131181831315B
:1052000018183131008C8C8C8C8C8C8C8C8C8C8C08
:105210008C8C8C00003131313131313131313131CF
:105220003131310080C0603098CC66333366CC9821
:105230003060C08088CC6633190C060303060C1955
:105240003366CC88113366CC983060C0C06030982B
:10525000CC6633110103060C193366CCCC663319C6
:105260000C06030100F0FEFFF000007F7F7F7F004F
:10527000FF0FE1E00FFFFF80BFBF80FF38B50C4696
:10528000010001D0092801DB00250CE0451E0AE0E1
:105290004FF4A070164908440090102328011022F2
:1052A000FFF729FE6D1C2078B0B114F8010B2028FF
:1052B000EED02D2808BF4FF4C070EBD0A0F1300124
:1052C0000A2938BF303804D3A0F14101062903D29E
:1052D0003638C0B24001DDE731BD00007003002068
:1052E00029360020580500203433002048040020CF
:1052F000546F0008009010230C2068430C220021FA
:10530000C0B202F0B3BD38B50C46451E72B908B143
:10531000112800DB00252078C0B114F8010B0FF232
:105320003001203800F05CFB6D1CF4E708B1112857
:1053300009DB002507E014F8010B0FF20461303897
:1053400000F04EFB6D1C20780028F4D131BD000028
:10535000000000000000000000000000000000004D
:10536000000000F8000000000000003330000000E2
:1053700000100C06100C06000000000000000000E9
:1053800040C07840C0784000043F04043F0404005B
:10539000007088FC08300000001820FF211E00006B
:1053A000F008F000E018000000211C031E211E0080
:1053B00000F00888700000001E2123241927211006
:1053C00010160E00000000000000000000000000A9
:1053D000000000E018040200000000071820400050
:1053E00000020418E0000000004020180700000040
:1053F000404080F0804040000202010F01020200A4
:10540000000000F0000000000101011F0101010087
:10541000000000000000000080B0700000000000EC
:105420000000000000000000000101010101010175
:10543000000000000000000000303000000000000C
:1054400000000000806018040060180601000000E1
:1054500000E010080810E000000F102020100F00DE
:10546000001010F8000000000020203F2020000065
:1054700000700808088870000030282422213000BD
:1054800000300888884830000018202020110E00C5
:105490000000C02010F8000000070424243F24006E
:1054A00000F80888880808000019212020110E0043
:1054B00000E0108888180000000F112020110E0055
:1054C00000380808C83808000000003F000000004D
:1054D0000070880808887000001C222121221C000E
:1054E00000E010080810E0000000312222110F0037
:1054F000000000C0C00000000000003030000000CC
:10550000000000800000000000008060000000003B
:105510000000804020100800000102040810200054
:10552000404040404040400004040404040404009F
:105530000008102040800000002010080402010034
:10554000007048080808F000000000303601000034
:10555000C030C828E810E0000718272423140B00E7
:105560000000C038E0000000203C23020227382061
:1055700008F8888888700000203F202020110E0045
:10558000C03008080808380007182020201008003C
:1055900008F808080810E000203F202020100F0025
:1055A00008F88888E8081000203F202023201800F1
:1055B00008F88888E8081000203F20000300000059
:1055C000C03008080838000007182020221E0200FA
:1055D00008F808000008F808203F210101213F20B9
:1055E000000808F8080800000020203F20200000E4
:1055F00000000808F8080800C08080807F000000D4
:1056000008F888C028180800203F2001263820000C
:1056100008F8080000000000203F20202020300073
:1056200008F8F800F8F80800203F003F003F20008D
:1056300008F830C00008F808203F200007183F0095
:10564000E01008080810E0000F10202020100F00C4
:1056500008F808080808F000203F210101010000B7
:10566000E01008080810E0000F18242438504F00FC
:1056700008F8888888887000203F2000030C3020BC
:1056800000708808080838000038202121221C00FA
:10569000180808F8080818000000203F2000000043
:1056A00008F808000008F808001F202020201F002C
:1056B0000878880000C83808000007380E0100008C
:1056C000F80800F80008F800033C0700073C030056
:1056D000081868808068180820302C03032C3020BC
:1056E0000838C800C83808000000203F200000002B
:1056F00010080808C8380800203826212020180083
:10570000000000FE020202000000007F4040400056
:10571000000C30C000000000000000010638C0008E
:1057200000020202FE000000004040407F00000036
:10573000000004020202040000000000000000005B
:105740000000000000000000808080808080808059
:105750000002020400000000000000000000000041
:1057600000008080808000000019242222223F2037
:1057700008F8008080000000003F112020110E007A
:105780000000008080800000000E11202020110009
:10579000000000808088F800000E112020103F20BB
:1057A0000000808080800000001F2222222213003F
:1057B000008080F0888888180020203F202000008A
:1057C0000000808080808000006B9494949360003F
:1057D00008F8008080800000203F210000203F204A
:1057E00000809898000000000020203F202000004A
:1057F000000000809898000000C08080807F00003A
:1058000008F8000080808000203F24022D30200016
:10581000000808F8000000000020203F20200000C1
:105820008080808080808000203F20003F20003FDB
:105830008080008080800000203F210000203F20E9
:105840000000808080800000001F202020201F009A
:10585000808000808000000080FFA12020110E00C9
:105860000000008080808000000E112020A0FF80BA
:10587000808080008080800020203F212000010067
:1058800000008080808080000033242424241900BC
:10589000008080E0808000000000001F20200000C9
:1058A0008080000000808000001F202020103F200A
:1058B000808080000080808000010E30080601009A
:1058C00080800080008080800F300C030C300F003F
:1058D00000808000808080000020312E0E3120006A
:1058E000808080000080808080818E70180601009A
:1058F00000808080808080000021302C22213000B8
:1059000000C72517101010200007081010101008ED
:1059100000000000FF00000000000000FF00000089
:105920000007F5171010101000003F0101010101E0
:105930000006010102020404000000000000000053
:105940000000E010080810E020000F102020100FC9
:1059500000001010F8000000200020203F20200050
:1059600000007008080808F02000302824222130A8
:105970000000300808088870200018202121221C0F
:105980000000804030F8000020060524243F242435
:105990000000F88888880808200019202020110EAF
:1059A0000000E0108888900020000F112020201FA8
:1059B0000000180808886818200000003E01000058
:1059C000000070880808887020001C222121221CF9
:1059D0000000F008080810E0200001122222110F38
:1059E000000601EB105000901023E800082200216F
:1059F000C0B202F03BBA38B551EA0002DFF8C04C41
:105A000012D100250CE0012D05D100F045F8502001
:105A100002F02CFA04466D1C022D3CDA002DF2D166
:105A200000F03AF80020F3E7020018D0002932D144
:105A300001280AD104F120000090102310225020E8
:105A400002F014FA04F1400015E0022823D100947A
:105A500010231022FFF7EBF804F1600017E00800B4
:105A600019D001290CD104F1200000F01AF802F03D
:105A7000FDF904F18000009000F00FF8002008E02C
:105A8000022908D10094FFF7CFF804F1A00000F03C
:105A900008F802F0EBF931BD009410231022002128
:105AA000704700901023102200215020704738B515
:105AB0000C46010001D0612801DB002512E0451EE3
:105AC00010E014F8010B0FF228012038C0B20C22AC
:105AD0005043084400900C2306220021E8B202F053
:105AE000C5F9AD1D20780028EBD131BD00000000C4
:105AF00000000000000000000000000000007C002A
:105B00000000000002000000000403040300000085
:105B10000000000090FC90FC9000000300030000D7
:105B20001824FE4488000102070201003844F8D01E
:105B30002CC0000300010201C038E418E02001027B
:105B40000201020104030000000000000000000048
:105B50000000F8060100000000030400000106F840
:105B600000000004030000009060F8609000000056
:105B700001000000002020F82020000000000000AC
:105B8000000000000000040300000000202020208E
:105B900020200000000000000000000000000002C3
:105BA000000000000000C0300C02040300000000F0
:105BB000F8040404F8000102020201000008FC00DD
:105BC00000000002030200001884442418000302AD
:105BD0000202020008042424D8000102020201008B
:105BE000C0A098FC80000000020302007C24242452
:105BF000C400010202020100F0482424C80001028E
:105C0000020201000004C4340C0000000300000084
:105C1000D8242424D800010202020100384444247C
:105C2000F800010202010000000010000000000066
:105C3000020000000000200000000000060000003C
:105C40000060900804000000000102005050505015
:105C500050500000000000000004089060000002A6
:105C6000010000001804C424180000000200000015
:105C7000F008E4F4847800010202020100E09CF0E4
:105C8000800002030000030204FC2424D800020365
:105C900002020100F80404040C00010202020100E7
:105CA00004FC0404F80002030202010004FC247452
:105CB0000C0002030202030004FC24740C00020323
:105CC00002000000F0080444CC4000010202010080
:105CD00004FC2020FC040203000003020404FC0472
:105CE0000400020203020200000404FC04040C0885
:105CF0000807000004FC24508C0402030200030285
:105D000004FC04000000020302020203FC3CC03C4D
:105D1000FC0403000300030204FC30C4FC0402037F
:105D200002000300F8040404F8000102020201006A
:105D300004FC24241800020302000000F8848404F8
:105D4000F80001020207050004FC24649800020325
:105D500002000302182424448C0003020202010002
:105D60000C04FC040C0000020302000004FC000010
:105D7000FC04000102020100047C80E01C0400001D
:105D8000030000003CC07CC03C0000030003000096
:105D9000049C609C0400020300030200043CC03C1D
:105DA00004000002030200000C84641C04000203CF
:105DB000020203000000FF010100000007040400CC
:105DC000000638C00000000000010600000101FFCD
:105DD00000000004040700000002010200000000AF
:105DE0000000000000000000000008080808080883
:105DF0000001020000000000000000000040A0A020
:105E0000C00000010202030202FE2020C0000003C5
:105E10000202010000C02020600000010202010017
:105E200000C02022FE0000010202030200C0A0A068
:105E3000C0000001020202000020FC222204000235
:105E4000030202000040A0A0602000050A0A0A0424
:105E500002FE2020C0000203020003020020E60030
:105E60000000000203020000000020E60000080815
:105E70000807000002FE806020000203000102000B
:105E80000202FE000000020203020200E020E02005
:105E9000C00003000300030020E02020C000020334
:105EA0000200030200C02020C00000010202010025
:105EB00020E02020C000080F0A02010000C02020BE
:105EC000E0000001020A0F0820E040202000020349
:105ED000020000000060A0A02000000202020300F7
:105EE0000020F820200000000302020020E0002033
:105EF000E00000010202030220E000E020000000B8
:105F0000030000006080E0806000000300030000E8
:105F100020608060200002030003020020E00000F7
:105F2000E0200808050300000020A0602000000217
:105F300003020200000020FF01000000000704002F
:105F4000000000FF00000000000F00000001DF2043
:105F5000000000040700000002010102010000002F
:105F600000000000F8B504460D4600260FF2440775
:105F70000AE0C82038440090F6B20A2000FB064030
:105F80001023FEF7B7FF761C287890B115F8010BA7
:105F9000432808BFDC20EDD0452808BFF020E9D019
:105FA000A0F130010A29E4D23038C0B214214843AC
:105FB000E0E7F1BD00E0180404040418E000000F5D
:105FC0003040404040300F0000000808FC00000056
:105FD0000000000040407F404000000000780404C2
:105FE000040404887000006050484442414070003E
:105FF000003804048484C830000000384040404029
:1060000040211E00000080601008FE000000000714
:10601000040444447F4444000000FC048484840459
:10602000040000384141404040211E0000C030883B
:10603000848484041800000F3140404040211E0039
:10604000001C04048444340C04000000007E0100A1
:106050000000000000708804040404887000001C24
:106060002241414141221C0000F0080404040418AC
:10607000E0000030414242422219070000000000C7
:106080000000000000000000000000000000000010
:106090001C1CC0300804040408300000071820400D
:1060A000404020101C120C0202FE8282E20200001C
:1060B0000000407F4000030000210A2202E090FB24
:1060C000F2F0491C0028FAD1C8B270472DE9F04F10
:1060D000DFF8904B83B06420A0614FF4C878C4F817
:1060E0000C80012000F0BBF94FF4967002F08AF8A2
:1060F00000F01AFB00F0ABFDDFF86C6BDFF86C0B07
:10610000B179DFF86C7B072926D8DFE801F00404B9
:1061100015181B1E2123012908BF07F1100503D004
:106120000B0008BF07F114054FF00C0C0CFB01F23B
:10613000BB69024493600FE007F11C050CE007F116
:10614000200509E007F1180506E0DFF8285B03E009
:10615000751C01E007F124050C234B430344D3F8DD
:1061600000905A6800921B8901937378012B0AD121
:10617000002918BF012906D1D0F86090416EB0F80F
:10618000680000910190012000F069F901F056F8D3
:10619000B0F5807F4FF4167A1DD1B079062810D162
:1061A0007078010057D000F0B6F800F0AEF8BBF5FB
:1061B000167FB8BFD34600F0A2F84CDAC7F810A09B
:1061C00049E028680099814245DA00F092F8B8BFAA
:1061D000084628603FE001F031F8402816D1B07938
:1061E000062808D1707800285CD100F0A1F800F0F2
:1061F00099F8386156E02868484553DA019908183B
:1062000028608145D8BF484628604BE001F016F869
:10621000B0F5014F28D1B079062810D1707801006F
:1062200016D000F078F800F070F8BBF5167FB8BF14
:10623000D34600F064F80BDAC7F810A008E028682D
:106240000099814204DA00F054F8B8BF084628608B
:10625000642001F0D7FF00F0FAFCC4F80C8028207D
:10626000A0610120307026E000F0E8FF48F2400114
:10627000884223D1B079062807D1707878B900F028
:1062800057F800F04FF8386109E02868484506DA09
:106290000199081828608145D8BF484628606420C5
:1062A00001F0B0FF00F0D3FCC4F80C802820A061FE
:1062B00002203070012000F0D2F807E000F0BEFFAD
:1062C00048F24011884204BF0020E06001F095F9D7
:1062D000E06800287FF457AF00F0B8FF00F0B7FC8B
:1062E0004FF44870E060C820A06101203071BDE823
:1062F000F78F0199401A2860009988427047B0F5DD
:10630000167F3861C7F814B070473969834609B2FF
:106310000120FDF71DBF401E70700120796909B290
:10632000FDF716BF78610020396909B2FDF710BF8B
:10633000012070700020796909B2FDF709BF70B5BE
:10634000DFF82049E069652804D3BDE870400020EB
:1063500000F078BFE068DFF81059B0F52F7F04D265
:106360002879012804BF0020287100F067FF00048D
:1063700004D5002000F06AFF6420E061E06908B9FC
:1063800000F0D2F900F05AFFB0F5807F4FF4487664
:1063900005D1A87901000CBF0920401E08E000F0DB
:1063A0004DFF40280AD1A8790928B4BF401C00201D
:1063B000A87100F04CFCE66001F0D8FD00F03EFF53
:1063C000B0F5014F05D000F039FF48F24001884296
:1063D00033D10020A061A879092804D0082809D069
:1063E000FFF774FE27E002F082FE00F030FC01F0BF
:1063F000BDFD20E001F001F9FEF70AFC01F0B6FD59
:1064000001F06CF800F016FF012803D102F0ABFA9E
:1064100002F024FCDFF8DC5A2878010009D0FEF7EE
:106420001DFB01F0EAF8FEF7F3FB0020287001F0F5
:106430009DFD00F00CFCE6600EE000F0FFFE48F26F
:106440004011884204BF2879002805D100F0FEFEE3
:1064500000F0FDFB0020E0600020BDE870402DE969
:10646000F0418AB0804601A8142101F0FFFB002012
:10647000ADF80000DFF8F0570FF6B0200088ADF857
:1064800018000FF6AC200088ADF80200A8790928A2
:106490000BD0082808D005EB8000002241690020BD
:1064A000FEF731FFA879082877D0A879DFF8486A85
:1064B000010084A707D1706800F018F970680A21FC
:1064C00090FBF1F03AE0012807D1306800F00EF9B6
:1064D00030680A2190FBF1F030E0022807D1F06823
:1064E00000F01BF9F0686421B0FBF1F026E003280E
:1064F00007D1306900F011F930696421B0FBF1F087
:106500001CE0042807D1B06800F0F0F8B0680A2158
:1065100090FBF1F012E0052813D1DFF858673068DE
:106520000A2100F0FBF830680A21B0FBF1F10A22E1
:1065300002FB11023946FDF799FE3068FFF7BCFDFA
:1065400022E006280AD16878002807BF03225EA14E
:1065500003225EA101A802F081FF14E0072815D1F3
:10656000377DDFF89849380007BF032258A103227E
:1065700058A101A802F072FF2078B84203D001F0C0
:10658000C7FC307D20700220A87006E0092804D1E5
:106590000FF6A01101A801F090FBB8F1010F4EA475
:1065A0004EA6DFF8C07644D1B8693C283ED22878A0
:1065B000012816D100F0A1F8A879052804D100F02F
:1065C000A7F800F08DF802E0002201A90920FEF7EB
:1065D0009AFEA878093000223146C0B2FEF793FE39
:1065E00012E0022818D100F08EF8A879052818D0FA
:1065F000002201A90920FEF786FEA87809300022B2
:1066000006A9C0B2FEF77FFEB869002854D1642005
:10661000B861002028704FE000F06FF8A8790528D5
:10662000E6D100F075F800F05BF8E4E700F06BF8F5
:106630003BE0A879082822D1B86900283CD100F0B5
:1066400060FF6978012908D1014600F06BFC0A213E
:1066500090FBF1F20FF6EC0104E00A2190FBF1F25D
:106660000FF6E80107A801F028FB002207A908207F
:10667000FEF749FEFDF79AFD1420B8611CE00928D9
:1066800004D101A90420FFF712FA15E000F03BF84D
:10669000A879052804D100F03BF800F021F802E0C9
:1066A000002201A90920FEF72EFEA8780930002259
:1066B0002146C0B2FEF727FE0AB0BDE8F081000017
:1066C0007471000825640000435400004654000023
:1066D000525400004C5400002020200020000000F4
:1066E000A878083001226946C0B270470A2190FBA1
:1066F000F1F2394601A801F0E0BA00220DF10201E1
:106700000820FEF700BE002231460820FEF7FBBD40
:10671000002201A90920FEF7F6BD6421B0FBF1F2C9
:10672000394601A801F0C9BA012000F08FBD70B54B
:106730000E0182B004465025F6B20DE0102105F19D
:10674000100001F0BEFBFFF7A7F9E8B201F08EFBE5
:10675000192001F057FD103DB542EFDA73BD2DE968
:10676000F14FDFF80C05DFF80055B0F91400904642
:106770000A2290FBF2F000B2642290FBF2FA5FFA78
:106780008AFA02FB1A030A2493FBF4FB5FFA8BFBE1
:1067900002FB1A0082B004FB1B00C0B20190E87833
:1067A000012803D1E8630020286406E0022805D10F
:1067B0000020E863102028640020E8700020A8630F
:1067C0000C46600000900FF28C7605E0FEF708FCA6
:1067D00089F83801781CA863AF6B0098DFF8209720
:1067E00087421FDA06EB4A10B944C05DFEF7F8FB9A
:1067F00089F8D80006EB4B10C05DFEF7F1FB89F875
:10680000F800019806EB4010C05DFEF7E9FB89F83F
:106810001801F019697801290CBF90F8E00190F88F
:10682000A001D3E79DF80800E96B2A6CDFF8D436A5
:10683000C0F1030060434FEA400A01E0009882443F
:106840000620604382452DDA4FF0000B0AE023F862
:1068500010600BF1010B33F81060300A8CF8D8008F
:106860008EF8D860A345E9DA0AEB0400584409EB36
:10687000000E0AEB0B0009EB000C9EF8D8709CF898
:10688000D86047EA062623F81060B8F1000F04D15B
:10689000002A14BFD6408E40D9E700290CBF96408D
:1068A000CE40D4E700201AE009EB060494F8D800A3
:1068B000FEF796FB84F8D80094F8F800FEF790FBFA
:1068C00084F8F80094F81801FEF78AFB84F81801A0
:1068D00094F83801FEF784FB84F83801701CA86333
:1068E000AE6B00988642DFDB012109F1D800A96375
:1068F00000901023A86B000710220021000E01F069
:10690000B5FAA96B491C0529A963F1DBE86B296C71
:1069100050EA010202D019B9102804D1002005E084
:10692000481E286401E0401CE8630120BDE8FE8F9A
:10693000F8B5CF480FF63C04B0F9146000212046AA
:10694000FFF7F5FE4FF47A7096FBF0F7FFB20FF207
:106950000465012105EB4710FFF7E9FE4FF47A705B
:1069600000FB1766642096FBF0F7FFB2022105EBEF
:106970004710FFF7DCFE642000FB17600A2290FB43
:10698000F2F00006032105EBD040FFF7D0FEDFF860
:1069900078054078002819BF04214FF4F0700421D5
:1069A0004FF4D0702844FFF7C2FE04F12000BDE888
:1069B000F4400521BBE610B5DFF85025B2F91430DC
:1069C00064244FF47A7293FBF4F493FBF2F2A4B2D2
:1069D00021B9C01800F00FF804D105E0181A00F032
:1069E0000AF801D0032010BD89B2A14201D00220D3
:1069F00010BD012010BD642190FBF1F14FF47A73BA
:106A000090FBF3F080B292B2904270472DE9F84FBC
:106A1000954C974FDFF84C92FFF786FE61789348CC
:106A2000BD69002907BFD0F800B04668D0F860B053
:106A3000466ED9F80C00002836D0606B38B10020C3
:106A4000606300F003FC01F091FAFFF771FF00F0C2
:106A5000F5FBB0F5A07F4FF4C87827D101F086FA96
:106A600000F0F5F811E0D9F80C001421B0FBF1F1B9
:106A7000142202FB110008B9FDF798FBD9F80C00AD
:106A800008B9C9F80C8000F0B8FD00F0D7FB48F257
:106A900040118842E7D1C9F80C80D9F80C00B0F554
:106AA000AF7F3CBF0020E071BDE8F18F00F0C6FB76
:106AB000B0F5807F20D1D7F814B05E4542DA0020CF
:106AC000E071012100F0BFF800F0B2F8B8BF304625
:106AD000786100F0A3F80028FBD10220E07000F0FC
:106AE0009DF80028FBD100210120FEF784FF786982
:106AF000B04227D1012122E000F0A0FB402824D1A0
:106B00007E695E451EDA0020E071002100F09BF8EE
:106B100000F088F8D8BF5846786100F090F8002857
:106B2000FBD10220E07000F08AF80028FBD10021A0
:106B30000220FEF760FF7869584503D1022100204A
:106B4000FEF759FF00F083F8A5E700F077FBB0F5FA
:106B5000014F2BD1D7F814B05E455BDAE179B86903
:106B6000FA2903DA0A2804BF0A31E171E1790D1824
:106B70000120E0700121A8B2FFF71DFF00F058F8D6
:106B8000B8BF3046786100F049F80028FBD10220F8
:106B9000E07000F043F80028FBD100210120FEF74F
:106BA0002AFF7869B04235D1012130E000F046FB80
:106BB00048F2400188427FF470AF7E695E4529DA71
:106BC000E179B869FA2903DA0A2804BF0A31E171C8
:106BD000E1790D180120E0700021A8B2FFF7EBFE6B
:106BE00000F020F8D8BF5846786100F028F8002857
:106BF000FBD10220E07000F022F80028FBD1002138
:106C00000220FEF7F8FE7869584503D102210020E2
:106C1000FEF7F1FE322001F0F5FA93E70122102190
:106C200050469CE58246ADB2A8197861834570470D
:106C30008246ADB2ABEB05007861B04270470022EE
:106C4000102150468BE50120E070A8B2B3E6002089
:106C500000F0F8BA20B1AE48C06810B1FFF76FBBC2
:106C6000D4E670476C3500202C0300207805002006
:106C700028000020DC0200202DE9F84300F0C6FCCB
:106C8000401E0728A24EA04CDFF880826AD8DFE8B9
:106C900010F008002F014500D700910098002F0147
:106CA000C700606B012801D100F036F9607A40B965
:106CB00001F073F900214046FDF7D0FC012060721D
:106CC00007E0B06928B9706918B1FDF7D2FA32202F
:106CD000B061706978B9208A401C208280B2322865
:106CE00005D1E089411EE181C0B201F06DF8E08973
:106CF00008B901F07AF802F0E0FB012803D000F0B7
:106D00009DFA00282ED0D8F8200070613320E08151
:106D100001F05AF8BDE8F14301F063B8606B28B99F
:106D20000120606300F092FA01F020F900F076FC97
:106D30008146207AB9F1010F06D008B101F016F9A9
:106D40000020A081207222E0A1894B2906D10100F8
:106D500004D101F00BF90120207200E0B8B1B06954
:106D600008B13068C4E000F05DFC05466078D8F8F2
:106D70001470012805D1294600F0D4F800F0D0F8AD
:106D8000074639B22846FDF7B1FD3220B0613068C0
:106D9000002804BF207A0028E4D100F043FCD8F892
:106DA000141005468142B4BF401A081A122800DAAE
:106DB0000D4685E05748007800B10120BDE8F24358
:106DC00048E7606B012801D100F0A6F800F036FA20
:106DD00048F24002A17A801A07D0C03803D0403868
:106DE00008BF002102E0012100E00221A172A07A87
:106DF000010002D1FDF70EFD0AE0012802D101F0E9
:106E0000CCF805E0022803D101214046FDF726FC1D
:106E1000A07A03286CD0FFF71AFF0320A07267E066
:106E2000606B10B9012000F078F8606B012804BF96
:106E3000B06900285CD1FDF7FDFE3220B06157E05B
:106E400000F0F0FBD8F8101005468142B4BF401A9C
:106E5000081A1328B8BF0D4600F0E0FB8146207ADF
:106E6000B9F1010F06D008B101F080F80020A0812F
:106E700020721FE0A189322906D1010004D101F05E
:106E800075F80120207200E0A0B1B06900287FF4FD
:106E900068AF6078D8F81070012805D129B200F0E9
:106EA00041F800F03DF8074639B228B2FDF71EFD63
:106EB0003220B0613068002804BF207A002817D142
:106EC0006078012803D129B200F02CF805462DB2D4
:106ED0000A2095FBF0F109B20120FDF784F902F0D8
:106EE000E9FA01464846FEF729F9A089401CA0812D
:106EF000BDE8F183D00200203800002028360020B1
:106F000070030020343300202C03002028000020D0
:106F10006C350020030000200020606301F026B8DB
:106F2000054639B20020FDF713B900003E0000000D
:106F30003C00000020466163746F727920526573D3
:106F40006574000025647D200000000025647B201E
:106F500000000000000000F8FE0301010103FEFC38
:106F6000F00000000000003F7FE0808080C07F3F95
:106F70000700000000000008040406FFFF000000F6
:106F80000000000000000000808080FFFF80808003
:106F900000000000000000060701010181C37F3EE0
:106FA00000000000000000E0F0D8CCC6C3C0C0E084
:106FB000000000000000000607818181C1633F1EC0
:106FC00000000000000000E0C080808181C37F3E9F
:106FD0000000000000000000C060380CFFFF00004F
:106FE000000000000000060705040484FFFFC484BD
:106FF00006000000000000FFFF8383838383830378
:1070000000000000000000E0C080808080C17F3F61
:1070100008000000000000E0F89C8EC2C3C181811E
:10702000000000000000003F7FC080808080C17FA2
:107030003F0000000000000F0303030383E33B0F46
:10704000030000000000000080E0781E070100003F
:10705000000000000000187E7EC381818181677E70
:107060003C00000000001C7EFFC180808081E37F27
:107070003C000000000078FEC603010101039EFCF5
:10708000F000000000000001018383C361713F0F25
:1070900001000000000000000000000000000000EF
:1070A00000000000000000000000000000000000E0
:1070B000000000000000000000000000F0000000E0
:1070C0000000000000000101010101011F01010198
:1070D00001010100000000000000000000000000AD
:1070E0000000000000010101010101010101010195
:1070F000010101000E11110EE0F80C06030101015F
:1071000001021E00000000000F3F70C080808080E0
:1071100080402000000000000000C0C0C0C000008F
:10712000000000000000000000003030303000009F
:107130000000000008142214080202FE06020202E7
:10714000C202061E00000000008080FF8181010154
:1071500003000000C03008040402FAAAFA02040482
:107160000830C0000718204058A4DBDEDBA45840DC
:1071700020180700808040402020101008080404D8
:10718000FE000000000001010202040408081010C3
:107190003F0000000000FE040408081010202040FA
:1071A0004080800000003F10100808040402020123
:1071B00001000000008080C0C06060303018180CF2
:1071C0000CFE0000000101030306060C0C18183029
:1071D000307F00000000FE0C0C181830306060C0DA
:1071E000C080800000007F303018180C0C060603A9
:1071F000030101008080C0C0E0E0F0F0F8F8FCFC82
:10720000FE00000000000101030307070F0F1F1F0E
:107210003F0000000000FEFCFCF8F8F0F0E0E0C0E9
:10722000C080800000003F1F1F0F0F0707030301EE
:1072300001000000DFF8700300787047DFF86C038E
:1072400080687047DFF8641388607047DFF85C136C
:1072500008707047DFF850034078704770B50446F7
:1072600000250A26DFF8480300F0D5FC4519761EF4
:10727000F8D10A20B5FBF0F040F663729042DFF8D7
:10728000281303D304204870002070BD0A22504305
:107290009022B0FBF2F000220FF2683333F8125064
:1072A000A84209D2521C042A06D2022AF6D125008D
:1072B000F4D0CD68A842F5D3501C70BDF0B5BE49DE
:1072C000BE4A086809681278C94301F04004B7490A
:1072D0004B88C04300F400700AB100238B80B0F5E6
:1072E000007F02D10022CA805B1C402C04D1002206
:1072F000CA808A88521C8A809BB28D880F78AD4ADA
:10730000192BA8BF192D03DBCFB148F2401612E0AC
:10731000192B4FF4014648F2400E05DB7FB11DB931
:1073200092F824703FB108E0192D08DB3FB133B962
:1073300092F824700FB18E6001E0C1F808E04FF4BC
:1073400080764FF4A077C0B9192B08DA180010D056
:10735000192D04DA1DB18F600020888009E0192BF7
:1073600007DA33B192F8240000281ABF4020886061
:107370008E60C888401CC8800023CCB98888192B2F
:1073800007DA1D0005D0192803DA60B18F600023E9
:1073900009E0192807DA30B192F82400002812BF5A
:1073A0008E6040208860C888401CC880002088808B
:1073B0004B80F0BD70B582494A680E78D3089CB204
:1073C000C5001EB901204D60087009E0844234BF39
:1073D000041B241AA4B23D2CBCBF8018C51A4D60F2
:1073E000E80870BD38B5002000F0FFFE7549764D05
:1073F00010200860192000F009FF0A2021E0002079
:1074000000F0EEFE6968AA684118824238BF024661
:10741000AA60EA68904288BF1046E8602888012880
:107420000CD1A868081AE968401AC008FFF7C2FF23
:107430000446002141F28830E860A960696028882C
:10744000401E288028880028D9D1204632BD5F49B7
:107450000A7822B9C000012248600A7007E04A6831
:107460008018931002EB5372A0EBE2004860811089
:1074700000EB5170C010704738B50025524C0A20FF
:1074800026E0012000F0ACFE2169626941188242C9
:1074900038BF02466261A269904288BF1046A0616F
:1074A0002088012811D16069081AA169401AC00812
:1074B000FFF7CDFF40F6E4414843000BA0F5FA7515
:1074C000002141F28830A061616121612088401E65
:1074D000208020880028D4D1284632BD10B5FFF77F
:1074E00081FF0446FFF7C8FFB4F5C87F2E4905D2D7
:1074F000B0F5967F02DA8C60012000E0022008706F
:1075000010BD70B50546FFF76DFF0446FFF7B4FFE9
:1075100025494A8840F6FF739C4202D18B885B1C48
:1075200007E00023A4F6D966B6F5937F34BF521C5A
:1075300000224A808B808E884A883C2E13462CDBA2
:107540005ABB03224A703C2E03DA0A2BBCBF01222D
:107550004A70A5F57A7296235A4340F6B83392FBE7
:10756000F3F25032B5F57A7F896808BF0A3A1DB147
:107570008B18A342B8BFA41AB0F5C87FC8BF4FF498
:10758000C87040F22633611A4FF47A72584302FBF6
:10759000010090FBF3F000B270BD002ED3D10A2B96
:1075A000D3DB02224A70D0E7D00200208C350020C5
:1075B0000028014028000020080801403003002076
:1075C000E8350020140C0140E0020020F0350020D6
:1075D00010B5044645F2555002F00CF8032002F0B5
:1075E0000CF80A2060434003000C02F009F802F096
:1075F0000AF802F00DF8012010BD80B502F003F882
:10760000012002BD2C0196005A002800DFF850042A
:1076100000787047DFF8481408707047DFF84004BE
:10762000008C7047DFF83804B0F922007047282238
:107630000FF2A041DFF82C0401F000BFDFF82004B6
:107640000021018141818181C181C16101610F21DD
:1076500081820221C182012101837047DFF8001479
:1076600070B548810546B1F90830CE69581B88814C
:10767000002400B2B0F5FA7FBCBF01248619AB42EA
:1076800005DAEB1A1BB2152BA4BF00260024CE612D
:107690001F28CE8A8D8AB4BF002301237443CE698C
:1076A000744300FB0544B1F90E600D8BC881821B49
:1076B0006A4303FB0242012AB8BF002205DB41F204
:1076C00071708242A8BF41F270720A6190B270BDBF
:1076D000DFF88C238842118104DA091A122904DBAD
:1076E000002105E0411A132901DA022100E00121FD
:1076F0001184B3E7F8B5DFF86853DFF86C732878C6
:10770000DFF8684301284FF47A760ED0032859D069
:10771000042800F0CD80052800F02281082800F020
:107720006681092800F05481F1BDFFF787FD4028EC
:1077300011D0B0F5807F26D16878012823D000F0E1
:10774000BCF904281FDA032028700020A8842060D8
:10775000A061606117E06878012814D00120E8700A
:1077600000220FF25C310020FDF7CDFD0020FEF776
:1077700076FEE66000F0FAFBBD49072008700520A0
:1077800028703220E061687820B1E06910B9687033
:10779000FFF758FD00F091F940B9FCF7C9FC01284A
:1077A00004BF0020FCF7C8FC08202870A878042833
:1077B00018BF012805D0A86C606100F06AF90120AB
:1077C000A870F1BD287948B100202871A94801F0BE
:1077D0002BFF0120FFF73AFD00F05BF9FFF72EFDCC
:1077E00048F24001401A04D0C03802D040380FD0CF
:1077F00018E000F054F900F0B9FB0020E870052013
:10780000287000F046F900206060E660962008E0ED
:1078100000F0EBFC00F040F901202870A8706870BF
:107820003220E06100F049F9042807DB00F037F965
:1078300000F032F900F03AF93220E061EE6B38786E
:1078400010B100F02FF90646606848B930B2FFF772
:1078500058FE00F019F900B200F0C7FC1E2060606D
:1078600000F0C7FC00B9606001F027FE90B9A88C59
:1078700018B90120A884686CA060A06860B9288449
:10788000A06100F0B2FC00F004F9A86C6061042073
:10789000287001E00020A884FFF7DCFC022890DBC0
:1078A000FCF746FC012804BF0020FCF745FC55E02E
:1078B000AE6B387810B100F0F5F80646E96BA86BAE
:1078C000814207DA387820B109B200F0ECF80646B8
:1078D00000E00E46606848B930B2FFF712FE00F0D3
:1078E000D3F800B200F081FC1E20606000F0E5F8E3
:1078F00004280DDB00F0D3F800F0CEF8012028704A
:10790000A86C60610420A870012068703220E061DA
:10791000606958B900F069FC00F0BEF80120687099
:10792000C820E0610420A8700120287001F0C5FD86
:10793000012802D0FFF782FC28B10020A06160611D
:10794000A88403202870FFF785FC02284EDBFCF793
:10795000EFFB012804BF0020FCF7EEFB082044E009
:10796000E06820BB444E012030706061E878012857
:1079700003D100F0F8FF01F071F900203070012010
:107980002871E87858B9FFF761FC00F082F83B48AD
:1079900001F04AFE032028700020206007E000F07C
:1079A0007EF800F079F800F081F86420E061FFF7DC
:1079B00045FC48F24011884204BFE87800284DD1C8
:1079C000E060FFF73FFCBDE8F2400020FFF73EBC5F
:1079D000E06920B1BDE8F2400020FFF733BCFFF7BB
:1079E0002DFC00283AD0E66003202870F1BDFFF797
:1079F00031FC801E012803D9801E012814D926E0FD
:107A0000AE6B387810B100F04DF8064630B2FFF793
:107A100078FD6884FFF71EFC012818D10320287028
:107A20000020FCF789FB12E000F047F801280EDB8C
:107A300000F043F804280ADA00F031F800F02CF8DE
:107A4000012068700220A061A870012028700C48F5
:107A500020B100F024F80B4910200860F1BD0000AF
:107A600000000020280000202D0300206C3500209D
:107A70003203002080969800D0020020C0C62D005E
:107A8000F3810008140C0140688431B2B5F922007A
:107A90001EE60020FFF7D6BB0020FFF7D7BB002073
:107AA00000F0A3BB31B20120FCF752BB01202870CB
:107AB0000320A8700120687070470120FFF7CEBB3B
:107AC00020202020202020202020202020202020B6
:107AD00000000000322E31370000000000000000DE
:107AE00000000000D0070000B80B00006400000098
:107AF00050460000A08C00000000000080B55649F0
:107B0000884208D101214FF4007001F0E0FE00210D
:107B10004FF4007016E05149884208D101214FF41A
:107B2000806001F0D4FE00214FF480600AE04C49EF
:107B300088420BD101214FF4004001F0C8FE002122
:107B40004FF40040BDE8044001F0C1BE01BD4268F1
:107B5000444B1A400B681A430B7942EA03224260F5
:107B6000414B82681A40CB681A438B681A434B79A1
:107B700042EA43028260C26A097C491E22F4700212
:107B8000C9B242EA0151C16270470029816812BF3F
:107B900041F001014908490081607047002981686E
:107BA00014BF41F4807121F4807181607047816855
:107BB00041F00801816070478068C008FFE700F06D
:107BC000010070470029816814BF41F4A00121F42D
:107BD000A0018160704770B500F025F81F24072AC6
:107BE00007DA521E02EB8202436B00F017F8416382
:107BF00070BD0D2A07DAD21F02EB8202036B00F080
:107C00000DF8016370BD0D3A02EB8202C36A00F009
:107C100005F8C16270BDC06C80B270479440A34348
:107C200091401943704707240A290BDBA1F10A058B
:107C300005EB4505C668AC4026EA0404AB40234387
:107C4000C360704701EB41050669AC4026EA0404B5
:107C5000AB402343036170470024014000280140EA
:107C6000003C0140FFFEF0FFFDF7F1FF002201F0B4
:107C70005DBE30B50022002803D52D220A70404297
:107C800001220A2390FBF3F301240A2502E093FB6F
:107C9000F5F36C43002BFAD15CB190FBF4F303F1E4
:107CA00030058D5404FB13000A23521C94FBF3F49B
:107CB000F2E700208854084630BD0CB42DE9FC41A1
:107CC000044600260027002C0D466BD00DF120083D
:107CD00003E0A95DE1550746761CA95D08005ED06A
:107CE000781C2529F5D1761CA95D632906D0642965
:107CF00012D066291FD0732903D0EAE758F8041B75
:107D0000E8E758F8040B0021425C13001EBFE2555F
:107D1000491C7F1CF8D1DFE758F8040B6946FFF7D0
:107D2000A8FF00211DF8010002001EBFE055491CFC
:107D30007F1CF7D1D0E758F8041B481E092824BF40
:107D4000A1F10A005A28C7D30A20A1F16402B2F5B2
:107D5000617F10D200F031F8E170042700F026F8BE
:107D6000A2702E2262700A2291FBF2F200FB121026
:107D700030302070B0E7A1F57A7242F228339A428F
:107D8000AAD200F01AF82171052700F00FF8E2706E
:107D90002E22A27000F011F861701146E3E7002076
:107DA000E0552046BDE8F6015DF80CFB0A2192FB88
:107DB000F1F100FB1122303270470A2291FBF2F2FE
:107DC00000FB12113031704780B50FF2104213687A
:107DD00000938DF803003C220421684601F0F0FC7A
:107DE00001BD00B50FF2103102E000B50FF2103105
:107DF00083B0D1E9002368460621C0E900233C2274
:107E000001F0DEFC07BD10B5A0B00C4640218DF896
:107E10000010411CC9B2012004E014F8012B0DF838
:107E20000020401C8842F8DB3C22684601F0C8FC78
:107E3000204620B010BD30B50FF2CC2383B0D3E97B
:107E40000045464B93F82430CDE90045012B18BF7F
:107E500020308DF805003C229DF8010008188DF8AF
:107E600001000821684601F0ABFC37BD2DE9F04167
:107E70000446880801EB50709046CE08C0085A1896
:107E8000B1EBC000D2B218BF761C900802EB507064
:107E9000C508B2EBC50002D1069FEDB20BE06D1C28
:107EA000FAE731462046FFF7C6FF39464046FFF75E
:107EB000AAFF0746761CF6B2AE42F2DB3846BDE8B2
:107EC000F08130B5A1B004460D4601A8FFF7CEFE03
:107ED00000F05FF82A460021E0B2FFF7C7FF00F08C
:107EE00058F82A460821E0B2FFF7C0FF21B030BDA4
:107EF00080B54FF48070ADF80000694603208DF81E
:107F0000020010208DF80300154801F029FD01BD85
:107F100010B5144C4FF48071204601F085FD02200D
:107F200000F070F94FF48071204601F07BFD0220D3
:107F300000F068F909490C4891F82410012903D18F
:107F4000C821C172A12102E0C021C172A021C17467
:107F50003C22BDE810402E2101F032BC2800002058
:107F6000000C014000080140FC02002000B5A1B057
:107F7000802101A8FFF77AFE00F00BF8802200F0C4
:107F8000B7F800F006F88022082100F0B2F821B01E
:107F900000BD01A80090082370472DE9F041A2B070
:107FA000802102A8FFF762FE002201A90FF26010F3
:107FB00000F0F8FC012504007DD02078422804BFA1
:107FC00060784D2840F0868004F136000178FF2962
:107FD00004BF4178FF2903D18078FF2808BF00251E
:107FE00000F081F801260F27002000210C2202FB5F
:107FF00007122244802392F83E204FF0080C03EA37
:10800000020E1DB1BEF1000F0CD102E0BEF1000F57
:1080100008D00DF1080E86449EF8018046EA080853
:108020008EF8018000F059F8E9D1491C0C29DDDBFC
:108030007606360E7F1E082FD6DA02A80090082397
:10804000602200F055F8FFF7D8FA00F04CF801264E
:108050000027002000216FF00B0202FB07122244D0
:10806000802392F892204FF0080C03EA020E1DB113
:10807000BEF1000F0CD102E0BEF1000F08D00DF1EF
:10808000080E86449EF8018046EA08088EF80180B2
:1080900000F023F8E9D1491C0C29DCDB7606360E0A
:1080A0007F1C082FD5DB02A800900823602208213E
:1080B00000F01FF808E00FF2640000901023602227
:1080C00000210020FFF7D2FE4FF47A7000F09AF8FA
:1080D000FFF793FA22B0BDE8F0815B08401CBCF1C9
:1080E000010CC0B270477F210DF1090001F0CABC3C
:1080F00000210020BAE60000808D801480AF0000CF
:10810000808D801080AE000080B080218020807F34
:108110004C4F474F494E2020424D50000000000078
:10812000000000000000000000000000000000004F
:108130000000000080C0E0F0F8FCFEFEFCF8F0E07B
:10814000C080C0E0F0F8FCFEFEFEFC783080C0C0CD
:1081500000189CCEE6F0F8FCFEFEFCF8F0E0C0E073
:10816000F0F87C00000000000000000000000000AB
:1081700000000000000000000000000000000000FF
:1081800000000000000000000000000000000000EF
:108190000000001F0F07030103070F1F3F7F7F3FF2
:1081A0001F0F07030103070703191C0E6773391C10
:1081B0000E07030103070F1F3F7F7F3F1F0F0703BA
:1081C00001000000000000000000000000000000AE
:1081D000000000000000000000000000808180001E
:1081E000DFF8081431F810007047DFF80414C86095
:1081F0007047DFF8FC03C06870472021DFF8F40304
:1082000001F040BCDFF8E813142202E0DFF8E013CD
:108210000A225043886088680028FCD17047DFF844
:10822000D8134FF400620A6100284FF480520A61AB
:1082300008680AD120F4404040F4405008600868C3
:1082400020F4402040F4403009E020F4804040F425
:1082500030400860086820F4802040F43020086036
:10826000704780B501F0EAFA102001F015FC0120FA
:1082700001F00CFCE148E24A4168114341600168A9
:1082800041F080710160012001F0F1FA012001F05C
:10829000F1FA392001F024FB0028FAD0022001F085
:1082A000ECFA01F0F1FA0828FBD10121052001F0D8
:1082B000F3FA012140F20C6001F0F7FA01210320EA
:1082C00001F0FCFABDE80240012001F0E2BA80B5FD
:1082D00001464FF0006001F092FC4FF4A06001F005
:1082E0005DFC14208DF8000002208DF801000020B4
:1082F0008DF8020001208DF80300684601F053FC60
:1083000001BD38B58020ADF8000000208DF80300D5
:108310006946BC4CBC4D204601F022FB4FF48070F6
:1083200000F021F80121B94801F080FB102000F095
:108330001AF80120ADF800006946002000F01AF894
:108340000220ADF800006946002000F013F84FF459
:108350001070ADF80000694648208DF803002046F3
:1083600001F0FEFA31BDADF80000694603208DF83A
:10837000020010208DF80300284601F0F1BA2DE923
:10838000F041A34E90B0304601F04EFCA148DFF81A
:108390008882059005A9954806904FF46027002033
:1083A00007904FF4204402200890254600200990B1
:1083B00080200A904FF480700B904FF480600C90F6
:1083C00020200D904FF400500E9000200F9030466A
:1083D00001F077FC0121304601F08EFC8F4E3046D3
:1083E000FFF78CFB00F053F802208DF810003046A8
:1083F000FFF7ADFB4046FFF781FB00F048F8012096
:108400008DF810004046FFF7A2FB07230222072148
:108410003046FFF7E0FB0723012208213046FFF733
:10842000DAFB0523012209214046FFF7D4FB012195
:108430003046FFF7B3FB01213046FFF7A6FB0121D1
:108440004046FFF7A2FB3046FFF7B1FB3046FFF78F
:10845000B3FB20B12846451E0028F7D114E0404662
:10846000FFF7A5FB25464046FFF7A6FB20B12846AF
:10847000451E0028F7D107E001213046FFF7A2FB97
:1084800001214046FFF79EFB10B0BDE8F0810020BF
:108490000090029701208DF804008DF805006946D0
:1084A00000200390704700B585B04FF4E06001F004
:1084B00075FB2F20ADF8040001A942F20F70ADF852
:1084C00008000020ADF80A00ADF806004FF080402B
:1084D00001F038FC00F060F801F08AFC012200F0A5
:1084E0005BF801F07DFC00F057F801F06FFC1C20F8
:1084F00000F02AF805B000BD1FB54FF4E06001F0B0
:108500004DFB2F20ADF804003120ADF808004FF4EA
:108510008070ADF80A000020ADF8060001A9404CBB
:10852000204601F00FFC0121204601F061FC0122F0
:108530000121204601F054FC0121204601F046FCB7
:108540001D2000F001F81FBD8DF8000000208DF8FF
:10855000010001208DF802008DF80300684601F04B
:1085600022BB10B500F018F801F04CFC00202D4C97
:1085700004EB80014A6812B14A68521E4A60401CEE
:108580000828F5DB2078411C0228217003D1FEF772
:1085900095FE0020207010BD01214FF080407047F3
:1085A00080B501211E4801F02DFC1148416811B130
:1085B0004168491E4160816811B18168491E81602E
:1085C000C1680278184B49B1C168491EC1601100E9
:1085D00019BF1021596010211960D243C16811B927
:1085E000102159600022027001BD000010360020E9
:1085F000B43500206C350020040801400010024012
:108600000A84680000080140000C014000013000AD
:10861000080002404C240140002801400024014091
:108620000004004068350020100C01407047000035
:10863000F8B564240A230829DFF8282B0DD8DFE8D1
:1086400001F0050D15436679A4AEB50000F0ACFB52
:10865000002902D100F0DBF81060F1BD00F0A4FBAE
:108660000029FAD100F0D3F85060F1BDC178467806
:108670008578A1F1300CBCF10A0F08D200784FF4D4
:108680007A77664307FB006000F0B1F814E0A5F1CB
:1086900030010A2907D2007803FB06F104FB001021
:1086A00000F0B0F808E0A6F130010A2904D2007801
:1086B00003FB0060A0F5047700F094F803D13FB20B
:1086C00004FB07F0D060F1BDC1788578A1F13006D8
:1086D0000A2E09D2067840784FF47A77604307FB78
:1086E000060000F084F80AE0A5F130010A2906D25C
:1086F00001784078584304FB010000F083F800F053
:1087000071F86ED13FB204FB07F01061F1BD4678FD
:108710000778A6F130000A283ABF03FB0760A0F5EE
:108720000477303F00F05EF85BD13FB203FB07F007
:108730009060F1BDC178467807788578A1F1300066
:108740000A2808D24FF47A7004FB06F200FB0720D7
:1087500000F04DF80FE0A5F130000A2802D200F039
:108760004DF808E0A6F130000A283ABF03FB076085
:10877000A0F50477303F00F035F832D13FB2DFF892
:10878000E81903FB07F00860F1BD00F00DFB41BBE9
:108790000078BDE8F2403038C0B2FBF7D1BC00F041
:1087A00003FBF1B9007830381075F1BD46780778D1
:1087B0008578A5F130000A2802D200F01FF808E001
:1087C000A6F130000A283ABF03FB0760A0F5047742
:1087D000303FDFF89809007818B9DFF894093FB204
:1087E0000760F1BDDFF8840900780028704703FBBB
:1087F0000500081800F53C57B037704703FB06F03A
:1088000004FB0700281841F2D041471A7047457809
:10881000017880785D4304FB0151401841F2D0415A
:10882000401A00B25843704730B508291DD8DFE818
:1088300001F005053B4B57626F6F7500DFF8343967
:1088400081781B78A1F130028BB90A2A3EBF4478A7
:10885000A4F130020A2A15D20378352B16DA342B0C
:1088600003D1302C08BF30297BD1012030BD0A2A2A
:108870003EBF4478A4F130020A2A3EBF0378A3F138
:10888000320007286DD2372B06D1362C69DA352C09
:10889000EBD1332965DAE8E7322BE6D1312C60DB06
:1088A000E3D13329E1DB5CE0C17830390A2922BF0A
:1088B000817830390A29D8D3417830390A2950D201
:1088C0000078363804281EE0C17830390A29CCD324
:1088D000817830390A2944D200783138092812E0E9
:1088E000037840783038062803D2A3F130000328FB
:1088F00009E0302B0AE0037840783038032804D2AE
:10890000A3F130000A28B0D32BE0352BADDA28E0F4
:108910000378312BA9D0302B23D1A6E744780378F4
:1089200081780A20A1F130050A2D08D26425604320
:1089300005FB0300081841F2D041401A09E0A4F1F8
:1089400030010A293ABF00FB0340A0F50470A3F1EF
:108950003000012A89D1DFF81818096880B28842EE
:1089600083D0002030BD10B54FF41852DFF808183E
:10897000DFF8080800F072FDDFF80408002100228B
:10898000002300241EC010BD10B5002207E0835C48
:10899000A3F161041A2C3CBF203B8354521C8A4231
:1089A000F5DB10BD2DE9FF418046DFF8D0474FF4DD
:1089B00080600D46271810260B22394601A800F0CA
:1089C0003DFD0B2101A8FFF7DFFF0B22414601A867
:1089D00001F030FAA8B907F11C000178297041783C
:1089E000697007F11A004FF4007102788DF80020C9
:1089F00042788DF80120BDF8000004EB40200844C7
:108A000003E02037761ED7D1002004B0BDE8F08106
:108A10002DE9F34FADF50F7D40F23B1140A8FFF774
:108A200025F9DFF860578F994FF40072284600F05F
:108A300005FD4FF0000800240026232140A87143C3
:108A4000002700EB010905E0232F3CBF09F80700D0
:108A50007F1C641C284601F01FFA844206D2285D60
:108A60000D2802BF291949780A29EDD1A41C761CCA
:108A700009F80780092EE0D30026DFF8E876DFF852
:108A8000009705EB860009EB860AD0F800422046E5
:108A900001F002FA232240A9724301EB020B0246C5
:108AA0002146584601F0C6F9002807D1204601F0BA
:108AB000F3F9044604E0202818BF3D2879D1641C4E
:108AC000584601F0E9F9844273D21BF80400A0F182
:108AD00030010A29EFD2302803D1062E18BF072E05
:108AE00067D15C440022F1B22046FFF79DFE0028CA
:108AF0005FD0F1B22046FFF79BFD3EB938680A21EE
:108B000090FBF1F20FF29C6140A84FE0012E07D1DB
:108B100078680A2190FBF1F248A80FF2946129E0ED
:108B2000022E08D1F8686421B0FBF1F20FF28C61DB
:108B30000DF5A3703AE0032E07D138696421B0FB2C
:108B4000F1F25AA80FF2806126E0042E07D1B8682E
:108B50000A2190FBF1F20FF27C6163A826E0052E5A
:108B60000AD1DFF8040600680A21B0FBF1F26BA815
:108B70000FF26C61C01C19E0062E07D1FBF7E4FA76
:108B800002460FF268610DF5E9700FE0072E05D17E
:108B90003A7D0FF260617DA8401C07E0082E1BD1D2
:108BA000DFF8CC050FF25461026886A8FFF785F85C
:108BB00012E0584601F070F90146584600F062FF95
:108BC000DAF81440204601F067F90246214658467B
:108BD00000F034FC4FF00108761C092EFFF451AF71
:108BE000FE216846FFF742F80025232140A869438B
:108BF0000144684601F06BF909EB85006D1C816B3F
:108C0000684601F064F9092DEFD3684601F044F994
:108C1000BDF84022DFF8641501EB421202F21C425B
:108C20001070000A50704FF480628F981144401AFF
:108C300000F50070411200EB91508012012109F8FB
:108C40000010684601F028F902468F98694600F046
:108C5000F5FB40460DF5117DBDE8F08F2DE9F0479D
:108C6000C2B00020ADF800006A460FF29C570DF12B
:108C700002013846FFF796FEDFF8004550B1BDF817
:108C80000010FFF7C5FE00F08FF808437DD000F01C
:108C900048F97AE00FF27C566A460DF1020130463F
:108CA000FFF780FE010004F21645DFF8DC844FF484
:108CB00018591ED0FE2201A800F0C0FB49462046EC
:108CC000FEF7D4FF0ECE4FF4846020440EC04FF464
:108CD0000060FE2201A9204400F0C0FB002068755E
:108CE000032104F23A40C5F820800170FE21817012
:108CF00003E049462046FEF7B9FF0ECF4FF48060EF
:108D000020440FF230770EC006223946204600F08C
:108D1000A5FB4FF4007006223946204400F09EFB6C
:108D200000260027DFF8580400EB87097F1CD9F8DC
:108D300014A0504601F0B0F80246A0194FF4C063E9
:108D40005146184400F07AFB504601F0A5F8D9F8D6
:108D500038908619484601F09FF80246A0194FF452
:108D6000C0634946184400F069FB484601F094F896
:108D70008619092FD6D3002084F80B04C5F800808B
:108D800002202871AE7100F0F5F842F60C00204484
:108D90000021C17601774176016081600161C16087
:108DA000002042B0BDE8F087DFF8C01309787047B3
:108DB0002DE9F0438846B8F5805F85B004464FF44E
:108DC0000075DFF8B89309D12A46494601F032F818
:108DD000002872D02A46214648460DE0B8F5205FAB
:108DE0000DD109EB05062A46314601F023F800288B
:108DF00063D02A462146304600F020FB5DE0B8F5FE
:108E0000804FDFF87C6332D14FF4806009EB0007BC
:108E10002A463946204601F00DF800284DD02A4652
:108E20002146384600F00AFB0120707010250FF231
:108E3000D8370C222146684600F000FB0B22394649
:108E4000684600F0F7FF40B9A07E708201203074C0
:108E5000207F40B1012030702FE020346D1EE8D11A
:108E6000307C0028F6D000203074308025E0A8F552
:108E70000047B7F5005F20D809EB0800A0F5F449DA
:108E80002A464946204600F0D5FF20B12A46214611
:108E9000484600F0D3FA708A790A891C814206D1CB
:108EA000811E89B24846FFF7B3FD40B905E0A8F539
:108EB000FC4006EB90200121417000F032F805B033
:108EC000BDE8F08338B504460D46FFF7AFFB4FF41D
:108ED000007215B90FF25C3118E0B5F5805FA74953
:108EE00014D0B5F5205F08BF89180FD0B5F5804FB5
:108EF00003D14FF48060014408E0A5F50040B0F5CF
:108F0000005F08D805F1006101F58C412046BDE8FD
:108F1000384000F093BA11462046BDE8344000F0D6
:108F2000B1BDF8B500F0C2FD002095490A5CD2B190
:108F3000914D00220A548402281900F0E8FF8F485E
:108F40000619002736F8021B3819281800F0CEFF42
:108F5000042803D000F0B4FD0420F2BDBF1CB7F517
:108F6000806FEFD302E0401C1028DFD300F0A8FD93
:108F70000020F2BD70B500F099FD804C7E4E0025BA
:108F800006EB852000F0C3FF6D1C092DF8DB0025E2
:108F900034F8021B701900F0A9FF042801D0042046
:108FA00070BDAD1CB5F5185FF2DB00F089FD002047
:108FB00070BD70B5714B754D42F618029C18227A3F
:108FC00012B900F08EF82072207A012833D120687F
:108FD00080B94FF418501E1829683046FFF772FF09
:108FE00040229821304600F0A7FF4FF4E070206047
:108FF00040200DE0A86818444FF4185340229821EF
:10900000184400F099FF206840382060A86840307C
:10901000A8604021012001F03CF83021012000F03F
:10902000BCFF28684030286068684038686058484D
:10903000816840398160686838B92060A86028601C
:109040000320544908700020207270BDF8B54B4AC7
:10905000514D42F61C03D41823682679403316B9C3
:1090600000F03FF82071207901282BD100204B49D6
:109070004FF4185C07E00F5C1644401C06F80C70B7
:109080002668761C266026689E42F4D36B68444EA0
:10909000296830884118181A68602960C00507D10E
:1090A00000202060A1F5007102EB0C00FFF780FEAC
:1090B000374832888168891A816002204FF4405114
:1090C00000F07AFF686800281EBF32480078042844
:1090D00006D100202060012101F04AF90020207112
:1090E000F1BD40022860480268600120704710B559
:1090F00084B068460021002200230EC01D491A4A90
:109100001A4C0020087044F250611648C16048F6BD
:10911000A0410161642181601160037540F6B8319E
:1091200041604FF4FA61016001202070FFF71BFCE1
:10913000FFF794FD0020207068460FF2E401FEF76F
:10914000BCFD4FF4FA70FFF75DF8FEF756FA69467A
:109150000020FCF7ACFC4FF47A70FFF753F8FEF7F1
:109160004CFA1FBD38000020DC020020D002002095
:10917000D80200202D03002000C00008F80A0020BB
:109180007402002050000020188DDD40D4350020EE
:10919000C435002034350020E0350020D4340020D0
:1091A0003635002053746254656D703D25640000AF
:1091B000576B54656D703D2564000000536C70540E
:1091C000696D653D2564000049646C54696D653DB9
:1091D0002564000054656D705374703D2564000073
:1091E0004F6666566F6C743D2564000054656D7063
:1091F0003D25640048616E643D2564005A65726FC8
:10920000505F41643D256400434F4E46494720204E
:10921000545854004C4F474F494E2020424D500067
:10922000496E697469616C2073756363657373213A
:1092300000000000EB3C904D53444F53352E30005E
:10924000020108000200025000F80C0001000100B9
:109250000000000000000000000029A298E46C4E0D
:109260004F204E414D452020202046415431322090
:10927000202033C98ED1BCF07B8ED9B800208EC09F
:10928000FCBD007C384E247D248BC199E83C0172E2
:109290001C83EB3A66A11C7C26663B07268A57FC9A
:1092A000750680CA0288560280C31073EB33C98AE0
:1092B000461098F7661603461C13561E03460E13F7
:1092C000D18B7611608946FC8956FEB82000F7E6FE
:1092D0008B5E0B03C348F7F30146FC114EFE61BFE2
:1092E0000000E8E600723926382D741760B10BBE15
:1092F000A17DF3A66174324E740983C7203BFB72D3
:10930000E6EBDCA0FB7DB47D8BF0AC9840740C48A0
:109310007413B40EBB0700CD10EBEFA0FD7DEBE6A0
:10932000A0FC7DEBE1CD16CD19268B551A52B0016C
:10933000BB0000E83B0072E85B8A5624BE0B7C8BC6
:10934000FCC746F03D7DC746F4297D8CD9894EF295
:10935000894EF6C606967DCBEA030000200FB6C8FC
:10936000668B46F86603461C668BD066C1EA10EB36
:109370005E0FB6C84A4A8A460D32E4F7E20346FC5D
:109380001356FEEB4A525006536A016A10918B46FF
:1093900018969233D2F7F691F7F64287CAF7761A03
:1093A0008AF28AE8C0CC020ACCB80102807E020EA2
:1093B0007504B4428BF48A5624CD136161720B405C
:1093C000750142035E0B497506F8C341BB0000609E
:1093D000666A00EBB04E544C4452202020202020DE
:1093E0000D0A52656D6F7665206469736B73206F2B
:1093F00072206F74686572206D656469612EFF0D5F
:109400000A4469736B206572726F72FF0D0A5072A5
:1094100065737320616E79206B657920746F20729B
:109420006573746172740D0A00000000000000ACE6
:10943000CBD855AAF8FFFFFFFFFF000062B38B07F0
:1094400008D0521E11F8013B00F8013B00F02480C7
:109450008B07F6D1830740F0208000BF103A07D376
:1094600030B4B1E83810103AA0E83810F9D230BC66
:10947000530724BFB1E80810A0E8081044BF51F812
:10948000043B40F8043BD20724BF31F8022B20F8FC
:10949000022B44BF0B7803707047083A07D3B1E83A
:1094A0000810083A40F8043B40F804CBF7D25307C1
:1094B000E4E700004D48C08970474D480088704778
:1094C00000B585B08DF800008DF801101D22022135
:1094D000684600F075F90DE000B585B003468DF8DB
:1094E00000001D220121684600F082F99DF800006D
:1094F0003E490873012005B000BD80B500212A2037
:10950000FFF7DEFF02210E20FFF7DAFF03212A20FA
:10951000FFF7D6FF00212B20FFF7D2FFBDE8044064
:1095200001212A20CCE770B51C460023002500F15C
:1095300010069642A6BFA0F11006B242012301F127
:109540001006A642A6BFA1F11006B442012300F105
:1095500020069642A6BF20388242012501F1200054
:10956000A042A6BFA1F12000844201252048058029
:10957000184670BD1D480178407802E01B4801790B
:10958000407940EA01200009802903DBC043401CE8
:10959000C0F30B00704738B5144C06212046FEF787
:1095A00065FB0020FFF798FFA8B1207B000712D5CC
:1095B0000120FFF791FF70B1207B2070657026714C
:1095C000677184F8088084F80990FFF7D3FF054697
:1095D000FFF7D4FF00E0258A208A00232A460021D5
:1095E000FFF7A1FFE081258231BD0000A0350020FA
:1095F000B235002009490860704709490860704782
:1096000008490860704705494AF6AA200860704773
:1096100002494CF6CC400860704700000030004022
:109620000430004008300040002800E0401EFDD11A
:10963000704780B5FEF75CFCC020ADF800006946BD
:1096400003208DF802001C208DF803005B4800F019
:1096500087F901BD70B50D46012D0446574E03D163
:109660002146304600F0DEF92DB921463046BDE8EE
:10967000704000F0D9B970BD80B50121082000F01C
:1096800014F9C020ADF80000694614208DF80300DD
:1096900003208DF80200494800F062F900F010F84C
:1096A00000F057F800F058F800F051F800F005F815
:1096B00000F04DF800F004F801BD00218020C9E75A
:1096C00000214020C6E780B5FFF7FAFFFFF7F5FF5E
:1096D00000F03DF800F040F800F039F800F039F8FB
:1096E00000F035F8FFF7ECFFBDE8024002209BE7F1
:1096F00038B50446082508E0FFF7E0FF00F027F83A
:1097000000F02AF800F023F8640000F06DF830B1A2
:10971000FFF7D6FF20064CBF01210021ECE7FFF741
:10972000CFFF00F016F8FF2400F011F800F042F827
:1097300048B900F011F800F00AF8FFF7C1FF00F097
:1097400006F8012032BD641EEED1002032BD022099
:109750006AE7012180207DE7012140207AE770B58A
:109760000446FFF7F6FF082500260DE0FFF7A8FFE7
:10977000FFF7EDFFFFF7F0FFFFF7E9FF00F01AF842
:10978000760008B146F0010600F02EF80028EDD171
:10979000FFF796FF002C0CBF01210021FFF78EFF81
:1097A000FFF7D5FFFFF7D8FFFFF7D1FFFFF788FFDF
:1097B000F0B270BD8021014800F02DB9000C0140CD
:1097C00070B504460D461646FFF756FF7000C0B24E
:1097D00001E014F8010BFFF78BFF00F005F80028FB
:1097E000F7D1BDE870406EE72846451EC0B270470D
:1097F000F8B504460D4616461F46FFF73DFF7600B6
:10980000F0B2FFF775FF3846FFF772FFFFF734FF3E
:1098100046F00100C0B2FFF76BFF03E0FFF79FFFC8
:1098200004F8010BFFF7E0FF20B1E8B2002818BFF1
:109830000120F3E7BDE8F14045E700003048314A38
:10984000016841F0010101604168114041602E4A08
:10985000016811400160016821F4802101604168C4
:1098600021F4FE0141604FF41F01816070472749D8
:109870000860704727490860704725490A689208C0
:1098800040EA8200086070472148006800F00C0040
:109890007047214908607047204A0029116814BFA9
:1098A000084321EA0000106070471D4A0029116832
:1098B00014BF084321EA000010607047194A0029CC
:1098C000116814BF084321EA000010607047164A6F
:1098D0000029116814BF084321EA00001060704796
:1098E0004109074A012908BF116803D002290CBFAA
:1098F000116A516A00F01F00C14001F00100704779
:10990000001002400000FFF8FFFFF6FE0000424298
:109910000410024060004242D8004242141002404B
:10992000181002401C1002400C10024000B500BF8D
:10993000130096469446103928BFA0E80C50FAD878
:109940005FEA417C28BF0CC048BF40F8042BC90720
:1099500028BF20F8022B48BF00F8012B00BD0000F3
:109960002DE9F041CC78002204F00F03E40644BF57
:109970008C7823430C8801250F26E7B20FB3D0F86B
:1099800000C005FA02F707EA0408B84514D14FEA07
:10999000820E06FA0EF82CEA080C03FA0EFE4EEAC6
:1099A0000C0C91F803E0BEF1280F08BF476103D00B
:1099B000BEF1480F08BF0761521C082AE1D3C0F866
:1099C00000C0FF2C25DDD0F804C0002202F10807FA
:1099D00005FA07F707EA0408B84515D14FEA820EE1
:1099E00006FA0EF82CEA080C03FA0EFE4EEA0C0CEE
:1099F00091F803E0BEF1280F08BF476191F803E03A
:109A0000BEF1480F08BF0761521C082ADED3C0F818
:109A100004C0BDE8F08180680022084218BF01221E
:109A200010467047016170474161704770B5144A34
:109A300000284CBF94691468460D83B23601B340C8
:109A400000F44016B6F5401FC0F3034506D1156873
:109A500025F0706524F07064156008E0C60243BF0D
:109A6000032606FA05F5AC439C4344F0706401B14B
:109A70001C43002801D5946170BD146070BD0000C6
:109A800004000140002200F0B5BC0000DFF8D41053
:109A90000A6802F0380206E0DFF8C8100A6822F00F
:109AA00010020A600A68104308607047FFE7DFF899
:109AB000B800DFF8B8100160DFF8B410016070473B
:109AC000FFE7DFF8B000016841F0800101607047F6
:109AD00038B5054600F015F804280DD1DFF894409C
